{
  "contractName": "WinNgnt",
  "abi": [
    {
      "constant": true,
      "inputs": [],
      "name": "maximumTicketsPerAddress",
      "outputs": [
        {
          "name": "",
          "type": "uint256"
        }
      ],
      "payable": false,
      "stateMutability": "view",
      "type": "function"
    },
    {
      "constant": true,
      "inputs": [
        {
          "name": "",
          "type": "uint256"
        }
      ],
      "name": "games",
      "outputs": [
        {
          "name": "gameNumber",
          "type": "uint256"
        },
        {
          "name": "gameWinner",
          "type": "address"
        }
      ],
      "payable": false,
      "stateMutability": "view",
      "type": "function"
    },
    {
      "constant": true,
      "inputs": [],
      "name": "ticketPrice",
      "outputs": [
        {
          "name": "",
          "type": "uint256"
        }
      ],
      "payable": false,
      "stateMutability": "view",
      "type": "function"
    },
    {
      "constant": false,
      "inputs": [],
      "name": "setDefaultRelayHub",
      "outputs": [],
      "payable": false,
      "stateMutability": "nonpayable",
      "type": "function"
    },
    {
      "constant": true,
      "inputs": [],
      "name": "deadline",
      "outputs": [
        {
          "name": "",
          "type": "uint256"
        }
      ],
      "payable": false,
      "stateMutability": "view",
      "type": "function"
    },
    {
      "constant": true,
      "inputs": [],
      "name": "exchangeContractApproval",
      "outputs": [
        {
          "name": "",
          "type": "bool"
        }
      ],
      "payable": false,
      "stateMutability": "view",
      "type": "function"
    },
    {
      "constant": true,
      "inputs": [],
      "name": "maximumPurchasableTickets",
      "outputs": [
        {
          "name": "",
          "type": "uint256"
        }
      ],
      "payable": false,
      "stateMutability": "view",
      "type": "function"
    },
    {
      "constant": true,
      "inputs": [
        {
          "name": "",
          "type": "uint256"
        },
        {
          "name": "",
          "type": "address"
        }
      ],
      "name": "addressTicketCount",
      "outputs": [
        {
          "name": "",
          "type": "uint256"
        }
      ],
      "payable": false,
      "stateMutability": "view",
      "type": "function"
    },
    {
      "constant": true,
      "inputs": [],
      "name": "minimumEther",
      "outputs": [
        {
          "name": "",
          "type": "uint256"
        }
      ],
      "payable": false,
      "stateMutability": "view",
      "type": "function"
    },
    {
      "constant": true,
      "inputs": [],
      "name": "getHubAddr",
      "outputs": [
        {
          "name": "",
          "type": "address"
        }
      ],
      "payable": false,
      "stateMutability": "view",
      "type": "function"
    },
    {
      "constant": false,
      "inputs": [
        {
          "name": "context",
          "type": "bytes"
        }
      ],
      "name": "preRelayedCall",
      "outputs": [
        {
          "name": "",
          "type": "bytes32"
        }
      ],
      "payable": false,
      "stateMutability": "nonpayable",
      "type": "function"
    },
    {
      "constant": false,
      "inputs": [],
      "name": "initialize",
      "outputs": [],
      "payable": false,
      "stateMutability": "nonpayable",
      "type": "function"
    },
    {
      "constant": true,
      "inputs": [
        {
          "name": "",
          "type": "bytes32"
        }
      ],
      "name": "pendingQueries",
      "outputs": [
        {
          "name": "",
          "type": "bool"
        }
      ],
      "payable": false,
      "stateMutability": "view",
      "type": "function"
    },
    {
      "constant": true,
      "inputs": [],
      "name": "targetAmount",
      "outputs": [
        {
          "name": "",
          "type": "uint256"
        }
      ],
      "payable": false,
      "stateMutability": "view",
      "type": "function"
    },
    {
      "constant": true,
      "inputs": [],
      "name": "relayHubVersion",
      "outputs": [
        {
          "name": "",
          "type": "string"
        }
      ],
      "payable": false,
      "stateMutability": "view",
      "type": "function"
    },
    {
      "constant": true,
      "inputs": [
        {
          "name": "",
          "type": "address"
        }
      ],
      "name": "addressHasPaidGsnFee",
      "outputs": [
        {
          "name": "",
          "type": "bool"
        }
      ],
      "payable": false,
      "stateMutability": "view",
      "type": "function"
    },
    {
      "constant": true,
      "inputs": [],
      "name": "oneEther",
      "outputs": [
        {
          "name": "",
          "type": "uint256"
        }
      ],
      "payable": false,
      "stateMutability": "view",
      "type": "function"
    },
    {
      "constant": true,
      "inputs": [],
      "name": "gameNumber",
      "outputs": [
        {
          "name": "",
          "type": "uint256"
        }
      ],
      "payable": false,
      "stateMutability": "view",
      "type": "function"
    },
    {
      "constant": false,
      "inputs": [
        {
          "name": "context",
          "type": "bytes"
        },
        {
          "name": "success",
          "type": "bool"
        },
        {
          "name": "actualCharge",
          "type": "uint256"
        },
        {
          "name": "preRetVal",
          "type": "bytes32"
        }
      ],
      "name": "postRelayedCall",
      "outputs": [],
      "payable": false,
      "stateMutability": "nonpayable",
      "type": "function"
    },
    {
      "constant": true,
      "inputs": [],
      "name": "commission",
      "outputs": [
        {
          "name": "",
          "type": "uint256"
        }
      ],
      "payable": false,
      "stateMutability": "view",
      "type": "function"
    },
    {
      "constant": true,
      "inputs": [],
      "name": "TOTAL_NGNT",
      "outputs": [
        {
          "name": "",
          "type": "uint256"
        }
      ],
      "payable": false,
      "stateMutability": "view",
      "type": "function"
    },
    {
      "inputs": [
        {
          "name": "ngnt",
          "type": "address"
        },
        {
          "name": "uniswap",
          "type": "address"
        },
        {
          "name": "relayHub",
          "type": "address"
        },
        {
          "name": "_maximumPurchasableTickets",
          "type": "uint256"
        }
      ],
      "payable": false,
      "stateMutability": "nonpayable",
      "type": "constructor"
    },
    {
      "payable": true,
      "stateMutability": "payable",
      "type": "fallback"
    },
    {
      "anonymous": false,
      "inputs": [
        {
          "indexed": false,
          "name": "tickets",
          "type": "address[]"
        }
      ],
      "name": "Tickets",
      "type": "event"
    },
    {
      "anonymous": false,
      "inputs": [
        {
          "indexed": false,
          "name": "gameNumber",
          "type": "uint256"
        }
      ],
      "name": "GameEnded",
      "type": "event"
    },
    {
      "anonymous": false,
      "inputs": [
        {
          "indexed": false,
          "name": "buyer",
          "type": "address"
        },
        {
          "indexed": false,
          "name": "numOfTickets",
          "type": "uint256"
        },
        {
          "indexed": false,
          "name": "totalTicketPrice",
          "type": "uint256"
        }
      ],
      "name": "BoughtTicket",
      "type": "event"
    },
    {
      "anonymous": false,
      "inputs": [
        {
          "indexed": false,
          "name": "description",
          "type": "string"
        }
      ],
      "name": "LogNewProvableQuery",
      "type": "event"
    },
    {
      "anonymous": false,
      "inputs": [
        {
          "indexed": false,
          "name": "randomNumber",
          "type": "uint16"
        }
      ],
      "name": "RandomNumberGenerated",
      "type": "event"
    },
    {
      "anonymous": false,
      "inputs": [
        {
          "indexed": false,
          "name": "winner",
          "type": "address"
        },
        {
          "indexed": false,
          "name": "amount",
          "type": "uint256"
        },
        {
          "indexed": false,
          "name": "gameNumber",
          "type": "uint256"
        }
      ],
      "name": "WinnerSelected",
      "type": "event"
    },
    {
      "anonymous": false,
      "inputs": [
        {
          "indexed": true,
          "name": "oldRelayHub",
          "type": "address"
        },
        {
          "indexed": true,
          "name": "newRelayHub",
          "type": "address"
        }
      ],
      "name": "RelayHubChanged",
      "type": "event"
    },
    {
      "constant": false,
      "inputs": [
        {
          "name": "numberOfTickets",
          "type": "uint256"
        }
      ],
      "name": "buyTicket",
      "outputs": [],
      "payable": false,
      "stateMutability": "nonpayable",
      "type": "function"
    },
    {
      "constant": true,
      "inputs": [],
      "name": "numberOfTicketsLeft",
      "outputs": [
        {
          "name": "",
          "type": "uint256"
        }
      ],
      "payable": false,
      "stateMutability": "view",
      "type": "function"
    },
    {
      "constant": true,
      "inputs": [],
      "name": "numberOfTicketsPurchased",
      "outputs": [
        {
          "name": "",
          "type": "uint256"
        }
      ],
      "payable": false,
      "stateMutability": "view",
      "type": "function"
    },
    {
      "constant": true,
      "inputs": [],
      "name": "getNgntAddress",
      "outputs": [
        {
          "name": "",
          "type": "address"
        }
      ],
      "payable": false,
      "stateMutability": "view",
      "type": "function"
    },
    {
      "constant": false,
      "inputs": [
        {
          "name": "queryId",
          "type": "bytes32"
        },
        {
          "name": "_result",
          "type": "string"
        }
      ],
      "name": "__callback",
      "outputs": [],
      "payable": false,
      "stateMutability": "nonpayable",
      "type": "function"
    },
    {
      "constant": false,
      "inputs": [
        {
          "name": "_myid",
          "type": "bytes32"
        },
        {
          "name": "_result",
          "type": "string"
        },
        {
          "name": "_proof",
          "type": "bytes"
        }
      ],
      "name": "__callback",
      "outputs": [],
      "payable": false,
      "stateMutability": "nonpayable",
      "type": "function"
    },
    {
      "constant": false,
      "inputs": [],
      "name": "startNextGame",
      "outputs": [],
      "payable": false,
      "stateMutability": "nonpayable",
      "type": "function"
    },
    {
      "constant": true,
      "inputs": [
        {
          "name": "relay",
          "type": "address"
        },
        {
          "name": "from",
          "type": "address"
        },
        {
          "name": "encodedFunction",
          "type": "bytes"
        },
        {
          "name": "transactionFee",
          "type": "uint256"
        },
        {
          "name": "gasPrice",
          "type": "uint256"
        },
        {
          "name": "gasLimit",
          "type": "uint256"
        },
        {
          "name": "nonce",
          "type": "uint256"
        },
        {
          "name": "approvalData",
          "type": "bytes"
        },
        {
          "name": "maxPossibleCharge",
          "type": "uint256"
        }
      ],
      "name": "acceptRelayedCall",
      "outputs": [
        {
          "name": "",
          "type": "uint256"
        },
        {
          "name": "",
          "type": "bytes"
        }
      ],
      "payable": false,
      "stateMutability": "view",
      "type": "function"
    }
  ],
  "bytecode": "0x60806040526000603c556001603e556367df3150603f5561c350604055600160415560fa604255600a604355670de0b6b3a7640000604455670de0b6b3a76400006045553480156200005057600080fd5b5060405160808062004480833981018060405260808110156200007257600080fd5b8101908080519060200190929190805190602001909291908051906020019092919080519060200190929190505050620000b66200018a60201b620017b81760201c565b83603960006101000a81548173ffffffffffffffffffffffffffffffffffffffff021916908373ffffffffffffffffffffffffffffffffffffffff16021790555082603a60006101000a81548173ffffffffffffffffffffffffffffffffffffffff021916908373ffffffffffffffffffffffffffffffffffffffff16021790555081603b60006101000a81548173ffffffffffffffffffffffffffffffffffffffff021916908373ffffffffffffffffffffffffffffffffffffffff16021790555080604281905550505050506200050d565b600060019054906101000a900460ff1680620001b25750620001b16200030060201b60201c565b5b80620001ca57506000809054906101000a900460ff16155b62000221576040517f08c379a000000000000000000000000000000000000000000000000000000000815260040180806020018281038252602e81526020018062004425602e913960400191505060405180910390fd5b60008060019054906101000a900460ff16159050801562000272576001600060016101000a81548160ff02191690831515021790555060016000806101000a81548160ff0219169083151502179055505b600073ffffffffffffffffffffffffffffffffffffffff16603360009054906101000a900473ffffffffffffffffffffffffffffffffffffffff1673ffffffffffffffffffffffffffffffffffffffff161415620002db57620002da6200031160201b60201c565b5b8015620002fd5760008060016101000a81548160ff0219169083151502179055505b50565b600080303b90506000811491505090565b6200033673d216153c06e857cd7f72665e0af1d7d82172f4946200033860201b60201c565b565b6000603360009054906101000a900473ffffffffffffffffffffffffffffffffffffffff169050600073ffffffffffffffffffffffffffffffffffffffff168273ffffffffffffffffffffffffffffffffffffffff161415620003e7576040517f08c379a000000000000000000000000000000000000000000000000000000000815260040180806020018281038252602e815260200180620043f7602e913960400191505060405180910390fd5b8073ffffffffffffffffffffffffffffffffffffffff168273ffffffffffffffffffffffffffffffffffffffff1614156200046e576040517f08c379a000000000000000000000000000000000000000000000000000000000815260040180806020018281038252602d81526020018062004453602d913960400191505060405180910390fd5b8173ffffffffffffffffffffffffffffffffffffffff168173ffffffffffffffffffffffffffffffffffffffff167fb9f84b8e65164b14439ae3620df0a4d8786d896996c0282b683f9d8c08f046e860405160405180910390a381603360006101000a81548173ffffffffffffffffffffffffffffffffffffffff021916908373ffffffffffffffffffffffffffffffffffffffff1602179055505050565b613eda806200051d6000396000f3fe6080604052600436106101c25760003560e01c80638129fc1c116100f7578063d809d24811610095578063e138cd3a11610064578063e138cd3a14610bff578063e148919114610c2a578063fbbfa57414610c55578063fdb0a43e14610c80576101c2565b8063d809d24814610ac0578063d8d40cee14610ad7578063dc0ed85414610b02578063e06e0e2214610b59576101c2565b8063953b8fb8116100d1578063953b8fb814610971578063ad61ccd51461099c578063ce4aa49d14610a2c578063d297a89f14610a95576101c2565b80638129fc1c1461073957806383947ea01461075057806389a2cdcb1461091e576101c2565b80633b6e345b1161016457806365e23ce31161013e57806365e23ce3146105e257806367dd74ca1461060d57806374e861d61461064857806380274db71461069f576101c2565b80633b6e345b146105195780633fadcc661461054857806365a062d514610573576101c2565b80631220e2ff116101a05780631220e2ff1461029c57806327dc297e146102b357806329dcb0cf1461038557806338bbfa50146103b0576101c2565b80630cba0be0146101c4578063117a5b90146101ef5780631209b1f614610271575b005b3480156101d057600080fd5b506101d9610cab565b6040518082815260200191505060405180910390f35b3480156101fb57600080fd5b506102286004803603602081101561021257600080fd5b8101908080359060200190929190505050610cb1565b604051808381526020018273ffffffffffffffffffffffffffffffffffffffff1673ffffffffffffffffffffffffffffffffffffffff1681526020019250505060405180910390f35b34801561027d57600080fd5b50610286610cf5565b6040518082815260200191505060405180910390f35b3480156102a857600080fd5b506102b1610cfb565b005b3480156102bf57600080fd5b50610383600480360360408110156102d657600080fd5b8101908080359060200190929190803590602001906401000000008111156102fd57600080fd5b82018360208201111561030f57600080fd5b8035906020019184600183028401116401000000008311171561033157600080fd5b91908080601f016020809104026020016040519081016040528093929190818152602001838380828437600081840152601f19601f820116905080830192505050505050509192919290505050610d1a565b005b34801561039157600080fd5b5061039a610e90565b6040518082815260200191505060405180910390f35b3480156103bc57600080fd5b50610517600480360360608110156103d357600080fd5b8101908080359060200190929190803590602001906401000000008111156103fa57600080fd5b82018360208201111561040c57600080fd5b8035906020019184600183028401116401000000008311171561042e57600080fd5b91908080601f016020809104026020016040519081016040528093929190818152602001838380828437600081840152601f19601f8201169050808301925050505050505091929192908035906020019064010000000081111561049157600080fd5b8201836020820111156104a357600080fd5b803590602001918460018302840111640100000000831117156104c557600080fd5b91908080601f016020809104026020016040519081016040528093929190818152602001838380828437600081840152601f19601f820116905080830192505050505050509192919290505050610e96565b005b34801561052557600080fd5b5061052e610eb9565b604051808215151515815260200191505060405180910390f35b34801561055457600080fd5b5061055d610ecc565b6040518082815260200191505060405180910390f35b34801561057f57600080fd5b506105cc6004803603604081101561059657600080fd5b8101908080359060200190929190803573ffffffffffffffffffffffffffffffffffffffff169060200190929190505050610ed2565b6040518082815260200191505060405180910390f35b3480156105ee57600080fd5b506105f7610ef7565b6040518082815260200191505060405180910390f35b34801561061957600080fd5b506106466004803603602081101561063057600080fd5b8101908080359060200190929190505050610efd565b005b34801561065457600080fd5b5061065d6116ac565b604051808273ffffffffffffffffffffffffffffffffffffffff1673ffffffffffffffffffffffffffffffffffffffff16815260200191505060405180910390f35b3480156106ab57600080fd5b50610723600480360360208110156106c257600080fd5b81019080803590602001906401000000008111156106df57600080fd5b8201836020820111156106f157600080fd5b8035906020019184600183028401116401000000008311171561071357600080fd5b90919293919293905050506116d6565b6040518082815260200191505060405180910390f35b34801561074557600080fd5b5061074e6117b8565b005b34801561075c57600080fd5b5061089c600480360361012081101561077457600080fd5b81019080803573ffffffffffffffffffffffffffffffffffffffff169060200190929190803573ffffffffffffffffffffffffffffffffffffffff169060200190929190803590602001906401000000008111156107d157600080fd5b8201836020820111156107e357600080fd5b8035906020019184600183028401116401000000008311171561080557600080fd5b9091929391929390803590602001909291908035906020019092919080359060200190929190803590602001909291908035906020019064010000000081111561084e57600080fd5b82018360208201111561086057600080fd5b8035906020019184600183028401116401000000008311171561088257600080fd5b909192939192939080359060200190929190505050611917565b6040518083815260200180602001828103825283818151815260200191508051906020019080838360005b838110156108e25780820151818401526020810190506108c7565b50505050905090810190601f16801561090f5780820380516001836020036101000a031916815260200191505b50935050505060405180910390f35b34801561092a57600080fd5b506109576004803603602081101561094157600080fd5b81019080803590602001909291905050506119f7565b604051808215151515815260200191505060405180910390f35b34801561097d57600080fd5b50610986611a17565b6040518082815260200191505060405180910390f35b3480156109a857600080fd5b506109b1611a1d565b6040518080602001828103825283818151815260200191508051906020019080838360005b838110156109f15780820151818401526020810190506109d6565b50505050905090810190601f168015610a1e5780820380516001836020036101000a031916815260200191505b509250505060405180910390f35b348015610a3857600080fd5b50610a7b60048036036020811015610a4f57600080fd5b81019080803573ffffffffffffffffffffffffffffffffffffffff169060200190929190505050611a5a565b604051808215151515815260200191505060405180910390f35b348015610aa157600080fd5b50610aaa611a7a565b6040518082815260200191505060405180910390f35b348015610acc57600080fd5b50610ad5611a80565b005b348015610ae357600080fd5b50610aec611a8a565b6040518082815260200191505060405180910390f35b348015610b0e57600080fd5b50610b17611a90565b604051808273ffffffffffffffffffffffffffffffffffffffff1673ffffffffffffffffffffffffffffffffffffffff16815260200191505060405180910390f35b348015610b6557600080fd5b50610bfd60048036036080811015610b7c57600080fd5b8101908080359060200190640100000000811115610b9957600080fd5b820183602082011115610bab57600080fd5b80359060200191846001830284011164010000000083111715610bcd57600080fd5b90919293919293908035151590602001909291908035906020019092919080359060200190929190505050611aba565b005b348015610c0b57600080fd5b50610c14611b9c565b6040518082815260200191505060405180910390f35b348015610c3657600080fd5b50610c3f611bde565b6040518082815260200191505060405180910390f35b348015610c6157600080fd5b50610c6a611be4565b6040518082815260200191505060405180910390f35b348015610c8c57600080fd5b50610c95611bea565b6040518082815260200191505060405180910390f35b60435481565b60476020528060005260406000206000915090508060000154908060020160009054906101000a900473ffffffffffffffffffffffffffffffffffffffff16905082565b60405481565b610d1873d216153c06e857cd7f72665e0af1d7d82172f494611c18565b565b610d22611de9565b610d2a611e56565b73ffffffffffffffffffffffffffffffffffffffff168173ffffffffffffffffffffffffffffffffffffffff1614610dad576040517f08c379a000000000000000000000000000000000000000000000000000000000815260040180806020018281038252603a815260200180613d4c603a913960400191505060405180910390fd5b8260011515604a600083815260200190815260200160002060009054906101000a900460ff16151514610ddf57600080fd5b60425460476000603e548152602001908152602001600020600101805490501415610e8a576000610e0f84612176565b90507f84b027da2abd556ef787dd35b17c4eafe2eedb771aa5a51000503cc58803309a81604051808261ffff1661ffff16815260200191505060405180910390a1604a600086815260200190815260200160002060006101000a81549060ff0219169055610e808161ffff166121f4565b610e8861243f565b505b50505050565b603f5481565b6000801b603760008060001b815260200190815260200160002081905550505050565b604660009054906101000a900460ff1681565b60425481565b6048602052816000526040600020602052806000526040600020600091509150505481565b60415481565b806001811015610f75576040517f08c379a000000000000000000000000000000000000000000000000000000000815260040180806020018281038252601f8152602001807f43616e6e6f7420627579206c657373207468616e206f6e65207469636b65740081525060200191505060405180910390fd5b816042548160476000603e54815260200190815260200160002060010180549050011115610fee576040517f08c379a0000000000000000000000000000000000000000000000000000000008152600401808060200182810382526024815260200180613d286024913960400191505060405180910390fd5b610ff6611de9565b836043548160486000603e54815260200190815260200160002060008573ffffffffffffffffffffffffffffffffffffffff1673ffffffffffffffffffffffffffffffffffffffff168152602001908152602001600020540111156110a6576040517f08c379a0000000000000000000000000000000000000000000000000000000008152600401808060200182810382526029815260200180613cff6029913960400191505060405180910390fd5b60006110bd8660405461245b90919063ffffffff16565b9050600060486000603e54815260200190815260200160002060006110e0611de9565b73ffffffffffffffffffffffffffffffffffffffff1673ffffffffffffffffffffffffffffffffffffffff16815260200190815260200160002054905060496000611129611de9565b73ffffffffffffffffffffffffffffffffffffffff1673ffffffffffffffffffffffffffffffffffffffff16815260200190815260200160002060009054906101000a900460ff166112a0576000603960009054906101000a900473ffffffffffffffffffffffffffffffffffffffff1673ffffffffffffffffffffffffffffffffffffffff16639d440f686040518163ffffffff1660e01b815260040160206040518083038186803b1580156111df57600080fd5b505afa1580156111f3573d6000803e3d6000fd5b505050506040513d602081101561120957600080fd5b810190808051906020019092919050505090506000811161122a5761138890505b61123d81846124e190919063ffffffff16565b925060016049600061124d611de9565b73ffffffffffffffffffffffffffffffffffffffff1673ffffffffffffffffffffffffffffffffffffffff16815260200190815260200160002060006101000a81548160ff021916908315150217905550505b81603c60008282540192505081905550603960009054906101000a900473ffffffffffffffffffffffffffffffffffffffff1673ffffffffffffffffffffffffffffffffffffffff166323b872dd6112f6611de9565b30856040518463ffffffff1660e01b8152600401808473ffffffffffffffffffffffffffffffffffffffff1673ffffffffffffffffffffffffffffffffffffffff1681526020018373ffffffffffffffffffffffffffffffffffffffff1673ffffffffffffffffffffffffffffffffffffffff1681526020018281526020019350505050602060405180830381600087803b15801561139457600080fd5b505af11580156113a8573d6000803e3d6000fd5b505050506040513d60208110156113be57600080fd5b81019080805190602001909291905050505086810190508060486000603e54815260200190815260200160002060006113f5611de9565b73ffffffffffffffffffffffffffffffffffffffff1673ffffffffffffffffffffffffffffffffffffffff16815260200190815260200160002081905550600060476000603e5481526020019081526020016000209050603e54816000018190555060008090505b888110156114e15781600101611471611de9565b90806001815401808255809150509060018203906000526020600020016000909192909190916101000a81548173ffffffffffffffffffffffffffffffffffffffff021916908373ffffffffffffffffffffffffffffffffffffffff16021790555050808060010191505061145d565b5060608160010180548060200260200160405190810160405280929190818152602001828054801561156857602002820191906000526020600020905b8160009054906101000a900473ffffffffffffffffffffffffffffffffffffffff1673ffffffffffffffffffffffffffffffffffffffff168152602001906001019080831161151e575b505050505090507f360330060f3e852e9c9989e78f54b5dafc52d2c055662b302d3c7125f077c77a611598611de9565b8a86604051808473ffffffffffffffffffffffffffffffffffffffff1673ffffffffffffffffffffffffffffffffffffffff168152602001838152602001828152602001935050505060405180910390a17fc5cb959c08e91c5b7df8f1338508ff2c1b9175f8feea32ba533bc6f1d7b38292816040518080602001828103825283818151815260200191508051906020019060200280838360005b8381101561164e578082015181840152602081019050611633565b505050509050019250505060405180910390a160425460476000603e5481526020019081526020016000206001018054905014156116a157600061169e6005603e5461252b90919063ffffffff16565b50505b505050505050505050565b6000603360009054906101000a900473ffffffffffffffffffffffffffffffffffffffff16905090565b60006116e06116ac565b73ffffffffffffffffffffffffffffffffffffffff163373ffffffffffffffffffffffffffffffffffffffff1614611763576040517f08c379a0000000000000000000000000000000000000000000000000000000008152600401808060200182810382526024815260200180613e306024913960400191505060405180910390fd5b6117b083838080601f016020809104026020016040519081016040528093929190818152602001838380828437600081840152601f19601f82011690508083019250505050505050612575565b905092915050565b600060019054906101000a900460ff16806117d757506117d661257c565b5b806117ee57506000809054906101000a900460ff16155b611843576040517f08c379a000000000000000000000000000000000000000000000000000000000815260040180806020018281038252602e815260200180613dd5602e913960400191505060405180910390fd5b60008060019054906101000a900460ff161590508015611893576001600060016101000a81548160ff02191690831515021790555060016000806101000a81548160ff0219169083151502179055505b600073ffffffffffffffffffffffffffffffffffffffff16603360009054906101000a900473ffffffffffffffffffffffffffffffffffffffff1673ffffffffffffffffffffffffffffffffffffffff1614156118f3576118f2610cfb565b5b80156119145760008060016101000a81548160ff0219169083151502179055505b50565b60006060600061196c8c8c8080601f016020809104026020016040519081016040528093929190818152602001838380828437600081840152601f19601f82011690508083019250505050505050600061258d565b90506367dd74ca60e01b7bffffffffffffffffffffffffffffffffffffffffffffffffffffffff1916817bffffffffffffffffffffffffffffffffffffffffffffffffffffffff191614156119cd576119c3612626565b92509250506119e7565b6119e16001808111156119dc57fe5b61264a565b92509250505b9b509b9950505050505050505050565b604a6020528060005260406000206000915054906101000a900460ff1681565b60455481565b60606040518060400160405280600581526020017f312e302e30000000000000000000000000000000000000000000000000000000815250905090565b60496020528060005260406000206000915054906101000a900460ff1681565b60445481565b611a8861266b565b565b603e5481565b6000603960009054906101000a900473ffffffffffffffffffffffffffffffffffffffff16905090565b611ac26116ac565b73ffffffffffffffffffffffffffffffffffffffff163373ffffffffffffffffffffffffffffffffffffffff1614611b45576040517f08c379a0000000000000000000000000000000000000000000000000000000008152600401808060200182810382526024815260200180613e306024913960400191505060405180910390fd5b611b9585858080601f016020809104026020016040519081016040528093929190818152602001838380828437600081840152601f19601f82011690508083019250505050505050848484612915565b5050505050565b60008060476000603e5481526020019081526020016000209050600081600101805490509050611bd7816042546124e190919063ffffffff16565b9250505090565b603d5481565b603c5481565b60008060476000603e5481526020019081526020016000209050600081600101805490509050809250505090565b6000603360009054906101000a900473ffffffffffffffffffffffffffffffffffffffff169050600073ffffffffffffffffffffffffffffffffffffffff168273ffffffffffffffffffffffffffffffffffffffff161415611cc5576040517f08c379a000000000000000000000000000000000000000000000000000000000815260040180806020018281038252602e815260200180613d86602e913960400191505060405180910390fd5b8073ffffffffffffffffffffffffffffffffffffffff168273ffffffffffffffffffffffffffffffffffffffff161415611d4a576040517f08c379a000000000000000000000000000000000000000000000000000000000815260040180806020018281038252602d815260200180613e03602d913960400191505060405180910390fd5b8173ffffffffffffffffffffffffffffffffffffffff168173ffffffffffffffffffffffffffffffffffffffff167fb9f84b8e65164b14439ae3620df0a4d8786d896996c0282b683f9d8c08f046e860405160405180910390a381603360006101000a81548173ffffffffffffffffffffffffffffffffffffffff021916908373ffffffffffffffffffffffffffffffffffffffff1602179055505050565b6000603360009054906101000a900473ffffffffffffffffffffffffffffffffffffffff1673ffffffffffffffffffffffffffffffffffffffff163373ffffffffffffffffffffffffffffffffffffffff1614611e4857339050611e53565b611e5061291b565b90505b90565b60008073ffffffffffffffffffffffffffffffffffffffff16603560009054906101000a900473ffffffffffffffffffffffffffffffffffffffff1673ffffffffffffffffffffffffffffffffffffffff161480611ede57506000611edc603560009054906101000a900473ffffffffffffffffffffffffffffffffffffffff16612993565b145b15611eef57611eed600061299e565b505b603560009054906101000a900473ffffffffffffffffffffffffffffffffffffffff1673ffffffffffffffffffffffffffffffffffffffff166338cc48316040518163ffffffff1660e01b8152600401602060405180830381600087803b158015611f5957600080fd5b505af1158015611f6d573d6000803e3d6000fd5b505050506040513d6020811015611f8357600080fd5b810190808051906020019092919050505073ffffffffffffffffffffffffffffffffffffffff16603460009054906101000a900473ffffffffffffffffffffffffffffffffffffffff1673ffffffffffffffffffffffffffffffffffffffff16146120ce57603560009054906101000a900473ffffffffffffffffffffffffffffffffffffffff1673ffffffffffffffffffffffffffffffffffffffff166338cc48316040518163ffffffff1660e01b8152600401602060405180830381600087803b15801561205257600080fd5b505af1158015612066573d6000803e3d6000fd5b505050506040513d602081101561207c57600080fd5b8101908080519060200190929190505050603460006101000a81548173ffffffffffffffffffffffffffffffffffffffff021916908373ffffffffffffffffffffffffffffffffffffffff1602179055505b603460009054906101000a900473ffffffffffffffffffffffffffffffffffffffff1673ffffffffffffffffffffffffffffffffffffffff1663c281d19e6040518163ffffffff1660e01b815260040160206040518083038186803b15801561213657600080fd5b505afa15801561214a573d6000803e3d6000fd5b505050506040513d602081101561216057600080fd5b8101908080519060200190929190505050905090565b60008060009050606083905060008090505b81518110156121e957600082828151811061219f57fe5b602001015160f81c60f81b60f81c905060308160ff16101580156121c7575060398160ff1611155b156121db576030810360ff16600a85020193505b508080600101915050612188565b508192505050919050565b600060476000603e5481526020019081526020016000209050600081600101838154811061221e57fe5b9060005260206000200160009054906101000a900473ffffffffffffffffffffffffffffffffffffffff169050808260020160006101000a81548173ffffffffffffffffffffffffffffffffffffffff021916908373ffffffffffffffffffffffffffffffffffffffff16021790555060006122b960646122ab605a603c5461245b90919063ffffffff16565b6129af90919063ffffffff16565b90506122d081603c546124e190919063ffffffff16565b603d60008282540192505081905550603960009054906101000a900473ffffffffffffffffffffffffffffffffffffffff1673ffffffffffffffffffffffffffffffffffffffff1663a9059cbb83836040518363ffffffff1660e01b8152600401808373ffffffffffffffffffffffffffffffffffffffff1673ffffffffffffffffffffffffffffffffffffffff16815260200182815260200192505050602060405180830381600087803b15801561238857600080fd5b505af115801561239c573d6000803e3d6000fd5b505050506040513d60208110156123b257600080fd5b8101908080519060200190929190505050507f866efae43947560fe9d0de9013bc323d5718730d5c1543261b48a7bcb0717b938282603e54604051808473ffffffffffffffffffffffffffffffffffffffff1673ffffffffffffffffffffffffffffffffffffffff168152602001838152602001828152602001935050505060405180910390a150505050565b603e600081548092919060010191905055506000603c81905550565b60008083141561246e57600090506124db565b600082840290508284828161247f57fe5b04146124d6576040517f08c379a0000000000000000000000000000000000000000000000000000000008152600401808060200182810382526021815260200180613db46021913960400191505060405180910390fd5b809150505b92915050565b600061252383836040518060400160405280601e81526020017f536166654d6174683a207375627472616374696f6e206f766572666c6f7700008152506129f9565b905092915050565b600061256d83836040518060400160405280601881526020017f536166654d6174683a206d6f64756c6f206279207a65726f0000000000000000815250612ab9565b905092915050565b6000919050565b600080303b90506000811491505090565b600060048201835110156125ec576040517f08c379a0000000000000000000000000000000000000000000000000000000008152600401808060200182810382526025815260200180613e8a6025913960400191505060405180910390fd5b6020820191508183015190507fffffffff000000000000000000000000000000000000000000000000000000008116905080905092915050565b6000606061264260405180602001604052806000815250612b7a565b915091509091565b6000606082600b016040518060200160405280600081525091509150915091565b3073ffffffffffffffffffffffffffffffffffffffff16316126c16040518060400160405280600c81526020017f576f6c6672616d416c7068610000000000000000000000000000000000000000815250612b8a565b1115612717577fc4dc360d0a9c0677a3379ae0a3d81e887f761e65fdf3d7e00859d1bcd3c4738960405180806020018281038252604b815260200180613cb4604b913960600191505060405180910390a1612913565b6000809050600060476000603e548152602001908152602001600020905060018160010180549050039150606061274d83612f1e565b6040516020018082805190602001908083835b602083106127835780518252602082019150602081019050602083039250612760565b6001836020036101000a03801982511681845116808217855250505050505090500191505060405160208183030381529060405290508060405160200180807f72616e646f6d206e756d626572206265747765656e203020616e642000000000815250601c0182805190602001908083835b6020831061281857805182526020820191506020810190506020830392506127f5565b6001836020036101000a038019825116818451168082178552505050505050905001915050604051602081830303815290604052905060608190507fc4dc360d0a9c0677a3379ae0a3d81e887f761e65fdf3d7e00859d1bcd3c47389604051808060200182810382526036815260200180613e546036913960400191505060405180910390a160006128df6040518060400160405280600c81526020017f576f6c6672616d416c70686100000000000000000000000000000000000000008152508361308d565b90506001604a600083815260200190815260200160002060006101000a81548160ff02191690831515021790555050505050505b565b50505050565b600060606000368080601f016020809104026020016040519081016040528093929190818152602001838380828437600081840152601f19601f820116905080830192505050505050509050600080369050905073ffffffffffffffffffffffffffffffffffffffff81830151169250829250505090565b6000813b9050919050565b60006129a86135d7565b9050919050565b60006129f183836040518060400160405280601a81526020017f536166654d6174683a206469766973696f6e206279207a65726f000000000000815250613b2e565b905092915050565b6000838311158290612aa6576040517f08c379a00000000000000000000000000000000000000000000000000000000081526004018080602001828103825283818151815260200191508051906020019080838360005b83811015612a6b578082015181840152602081019050612a50565b50505050905090810190601f168015612a985780820380516001836020036101000a031916815260200191505b509250505060405180910390fd5b5060008385039050809150509392505050565b6000808314158290612b66576040517f08c379a00000000000000000000000000000000000000000000000000000000081526004018080602001828103825283818151815260200191508051906020019080838360005b83811015612b2b578082015181840152602081019050612b10565b50505050905090810190601f168015612b585780820380516001836020036101000a031916815260200191505b509250505060405180910390fd5b50828481612b7057fe5b0690509392505050565b6000606060008391509150915091565b60008073ffffffffffffffffffffffffffffffffffffffff16603560009054906101000a900473ffffffffffffffffffffffffffffffffffffffff1673ffffffffffffffffffffffffffffffffffffffff161480612c1257506000612c10603560009054906101000a900473ffffffffffffffffffffffffffffffffffffffff16612993565b145b15612c2357612c21600061299e565b505b603560009054906101000a900473ffffffffffffffffffffffffffffffffffffffff1673ffffffffffffffffffffffffffffffffffffffff166338cc48316040518163ffffffff1660e01b8152600401602060405180830381600087803b158015612c8d57600080fd5b505af1158015612ca1573d6000803e3d6000fd5b505050506040513d6020811015612cb757600080fd5b810190808051906020019092919050505073ffffffffffffffffffffffffffffffffffffffff16603460009054906101000a900473ffffffffffffffffffffffffffffffffffffffff1673ffffffffffffffffffffffffffffffffffffffff1614612e0257603560009054906101000a900473ffffffffffffffffffffffffffffffffffffffff1673ffffffffffffffffffffffffffffffffffffffff166338cc48316040518163ffffffff1660e01b8152600401602060405180830381600087803b158015612d8657600080fd5b505af1158015612d9a573d6000803e3d6000fd5b505050506040513d6020811015612db057600080fd5b8101908080519060200190929190505050603460006101000a81548173ffffffffffffffffffffffffffffffffffffffff021916908373ffffffffffffffffffffffffffffffffffffffff1602179055505b603460009054906101000a900473ffffffffffffffffffffffffffffffffffffffff1673ffffffffffffffffffffffffffffffffffffffff1663524f3889836040518263ffffffff1660e01b81526004018080602001828103825283818151815260200191508051906020019080838360005b83811015612e90578082015181840152602081019050612e75565b50505050905090810190601f168015612ebd5780820380516001836020036101000a031916815260200191505b5092505050602060405180830381600087803b158015612edc57600080fd5b505af1158015612ef0573d6000803e3d6000fd5b505050506040513d6020811015612f0657600080fd5b81019080805190602001909291905050509050919050565b60608060206040519080825280601f01601f191660200182016040528015612f555781602001600182028038833980820191505090505b50905060008090505b6000841115612fcd576030600a8581612f7357fe5b060160f81b828281518110612f8457fe5b60200101907effffffffffffffffffffffffffffffffffffffffffffffffffffffffffffff1916908160001a905350600a8481612fbd57fe5b0493508080600101915050612f5e565b606081806001900392506040519080825280601f01601f1916602001820160405280156130095781602001600182028038833980820191505090505b50905060008090505b8151811015613081578383806001900394508151811061302e57fe5b602001015160f81c60f81b82828151811061304557fe5b60200101907effffffffffffffffffffffffffffffffffffffffffffffffffffffffffffff1916908160001a9053508080600101915050613012565b50809350505050919050565b60008073ffffffffffffffffffffffffffffffffffffffff16603560009054906101000a900473ffffffffffffffffffffffffffffffffffffffff1673ffffffffffffffffffffffffffffffffffffffff16148061311557506000613113603560009054906101000a900473ffffffffffffffffffffffffffffffffffffffff16612993565b145b1561312657613124600061299e565b505b603560009054906101000a900473ffffffffffffffffffffffffffffffffffffffff1673ffffffffffffffffffffffffffffffffffffffff166338cc48316040518163ffffffff1660e01b8152600401602060405180830381600087803b15801561319057600080fd5b505af11580156131a4573d6000803e3d6000fd5b505050506040513d60208110156131ba57600080fd5b810190808051906020019092919050505073ffffffffffffffffffffffffffffffffffffffff16603460009054906101000a900473ffffffffffffffffffffffffffffffffffffffff1673ffffffffffffffffffffffffffffffffffffffff161461330557603560009054906101000a900473ffffffffffffffffffffffffffffffffffffffff1673ffffffffffffffffffffffffffffffffffffffff166338cc48316040518163ffffffff1660e01b8152600401602060405180830381600087803b15801561328957600080fd5b505af115801561329d573d6000803e3d6000fd5b505050506040513d60208110156132b357600080fd5b8101908080519060200190929190505050603460006101000a81548173ffffffffffffffffffffffffffffffffffffffff021916908373ffffffffffffffffffffffffffffffffffffffff1602179055505b6000603460009054906101000a900473ffffffffffffffffffffffffffffffffffffffff1673ffffffffffffffffffffffffffffffffffffffff1663524f3889856040518263ffffffff1660e01b81526004018080602001828103825283818151815260200191508051906020019080838360005b8381101561339557808201518184015260208101905061337a565b50505050905090810190601f1680156133c25780820380516001836020036101000a031916815260200191505b5092505050602060405180830381600087803b1580156133e157600080fd5b505af11580156133f5573d6000803e3d6000fd5b505050506040513d602081101561340b57600080fd5b8101908080519060200190929190505050905062030d403a02670de0b6b3a764000001811115613441576000801b9150506135d1565b603460009054906101000a900473ffffffffffffffffffffffffffffffffffffffff1673ffffffffffffffffffffffffffffffffffffffff1663adf59f9982600087876040518563ffffffff1660e01b8152600401808481526020018060200180602001838103835285818151815260200191508051906020019080838360005b838110156134dd5780820151818401526020810190506134c2565b50505050905090810190601f16801561350a5780820380516001836020036101000a031916815260200191505b50838103825284818151815260200191508051906020019080838360005b83811015613543578082015181840152602081019050613528565b50505050905090810190601f1680156135705780820380516001836020036101000a031916815260200191505b50955050505050506020604051808303818588803b15801561359157600080fd5b505af11580156135a5573d6000803e3d6000fd5b50505050506040513d60208110156135bc57600080fd5b81019080805190602001909291905050509150505b92915050565b6000806135f7731d3b2638a7cc9f2cb3d298a3da7a90b67e5506ed612993565b111561369957731d3b2638a7cc9f2cb3d298a3da7a90b67e5506ed603560006101000a81548173ffffffffffffffffffffffffffffffffffffffff021916908373ffffffffffffffffffffffffffffffffffffffff1602179055506136906040518060400160405280600b81526020017f6574685f6d61696e6e6574000000000000000000000000000000000000000000815250613bf4565b60019050613b2b565b60006136b873c03a2615d5efaf5f49f60b7bb6583eaec212fdf1612993565b111561375a5773c03a2615d5efaf5f49f60b7bb6583eaec212fdf1603560006101000a81548173ffffffffffffffffffffffffffffffffffffffff021916908373ffffffffffffffffffffffffffffffffffffffff1602179055506137516040518060400160405280600c81526020017f6574685f726f707374656e330000000000000000000000000000000000000000815250613bf4565b60019050613b2b565b600061377973b7a07bcf2ba2f2703b24c0691b5278999c59ac7e612993565b111561381b5773b7a07bcf2ba2f2703b24c0691b5278999c59ac7e603560006101000a81548173ffffffffffffffffffffffffffffffffffffffff021916908373ffffffffffffffffffffffffffffffffffffffff1602179055506138126040518060400160405280600981526020017f6574685f6b6f76616e0000000000000000000000000000000000000000000000815250613bf4565b60019050613b2b565b600061383a73146500cfd35b22e4a392fe0adc06de1a1368ed48612993565b11156138dc5773146500cfd35b22e4a392fe0adc06de1a1368ed48603560006101000a81548173ffffffffffffffffffffffffffffffffffffffff021916908373ffffffffffffffffffffffffffffffffffffffff1602179055506138d36040518060400160405280600b81526020017f6574685f72696e6b656279000000000000000000000000000000000000000000815250613bf4565b60019050613b2b565b60006138fb73a2998efd205fb9d4b4963afb70778d6354ad3a41612993565b111561399d5773a2998efd205fb9d4b4963afb70778d6354ad3a41603560006101000a81548173ffffffffffffffffffffffffffffffffffffffff021916908373ffffffffffffffffffffffffffffffffffffffff1602179055506139946040518060400160405280600a81526020017f6574685f676f65726c6900000000000000000000000000000000000000000000815250613bf4565b60019050613b2b565b60006139bc736f485c8bf6fc43ea212e93bbf8ce046c7f1cb475612993565b1115613a2057736f485c8bf6fc43ea212e93bbf8ce046c7f1cb475603560006101000a81548173ffffffffffffffffffffffffffffffffffffffff021916908373ffffffffffffffffffffffffffffffffffffffff16021790555060019050613b2b565b6000613a3f7320e12a1f859b3feae5fb2a0a32c18f5a65555bbf612993565b1115613aa3577320e12a1f859b3feae5fb2a0a32c18f5a65555bbf603560006101000a81548173ffffffffffffffffffffffffffffffffffffffff021916908373ffffffffffffffffffffffffffffffffffffffff16021790555060019050613b2b565b6000613ac27351efaf4c8b3c9afbd5ab9f4bbc82784ab6ef8faa612993565b1115613b26577351efaf4c8b3c9afbd5ab9f4bbc82784ab6ef8faa603560006101000a81548173ffffffffffffffffffffffffffffffffffffffff021916908373ffffffffffffffffffffffffffffffffffffffff16021790555060019050613b2b565b600090505b90565b60008083118290613bda576040517f08c379a00000000000000000000000000000000000000000000000000000000081526004018080602001828103825283818151815260200191508051906020019080838360005b83811015613b9f578082015181840152602081019050613b84565b50505050905090810190601f168015613bcc5780820380516001836020036101000a031916815260200191505b509250505060405180910390fd5b506000838581613be657fe5b049050809150509392505050565b8060369080519060200190613c0a929190613c0e565b5050565b828054600181600116156101000203166002900490600052602060002090601f016020900481019282601f10613c4f57805160ff1916838001178555613c7d565b82800160010185558215613c7d579182015b82811115613c7c578251825591602001919060010190613c61565b5b509050613c8a9190613c8e565b5090565b613cb091905b80821115613cac576000816000905550600101613c94565b5090565b9056fe50726f7661626c6520717565727920776173204e4f542073656e742c20706c656173652061646420736f6d652045544820746f20636f76657220666f7220746865207175657279206665654d6178696d756d207469636b6574206c696d6974207065722061646472657373206578636565646564546f74616c207469636b6574207065722067616d65206c696d697420657863656564656443616c6c6261636b2063616e206f6e6c792062652063616c6c656420627920612070726f7661626c652063616c6c6261636b206164647265737347534e526563697069656e743a206e65772052656c617948756220697320746865207a65726f2061646472657373536166654d6174683a206d756c7469706c69636174696f6e206f766572666c6f77436f6e747261637420696e7374616e63652068617320616c7265616479206265656e20696e697469616c697a656447534e526563697069656e743a206e65772052656c6179487562206973207468652063757272656e74206f6e6547534e526563697069656e743a2063616c6c6572206973206e6f742052656c617948756250726f7661626c65207175657279207761732073656e742c207374616e64696e6720627920666f722074686520616e737765722e2e2e475245415445525f4f525f455155414c5f544f5f345f4c454e4754485f5245515549524544a165627a7a723058205ebc9c9eee24c22eb3dbf0a58ae515ca3408cdc096050193b25a2dc31947f7be002947534e526563697069656e743a206e65772052656c617948756220697320746865207a65726f2061646472657373436f6e747261637420696e7374616e63652068617320616c7265616479206265656e20696e697469616c697a656447534e526563697069656e743a206e65772052656c6179487562206973207468652063757272656e74206f6e65",
  "source": "pragma solidity ^0.5.0;\n\nimport \"./provableAPI.sol\";\nimport \"./SafeStringCast.sol\";\nimport \"./interfaces/IERC20.sol\";\nimport \"./interfaces/IUniswapExchange.sol\";\nimport { SafeIntCast } from \"./SafeIntCast.sol\";\nimport \"@0x/contracts-utils/contracts/src/LibBytes.sol\";\nimport '@openzeppelin/contracts-ethereum-package/contracts/math/SafeMath.sol';\nimport \"@openzeppelin/contracts-ethereum-package/contracts/GSN/GSNRecipient.sol\";\n\n\ncontract WinNgnt is GSNRecipient, usingProvable {\n    using SafeMath for uint256;\n    using SafeStringCast for string;\n\n    IERC20 private _ngnt;\n    IUniswapExchange private _uniswap;\n    IRelayHub private _relayHub;\n    uint public TOTAL_NGNT = 0;\n\n    struct Game {\n        uint gameNumber;\n        address[] tickets;\n        address gameWinner;\n    }\n\n    enum GSNErrorCodes {\n        INSUFFICIENT_BALANCE, NOT_ALLOWED\n    }\n\n    uint public commission;\n    uint public gameNumber = 1;\n    uint public deadline = 1742680400;\n    uint public ticketPrice = 50000;\n    uint public minimumEther = 1 wei;\n    uint public maximumPurchasableTickets = 250;\n    uint public maximumTicketsPerAddress = 10;\n    uint public oneEther = 1000000000000000000;\n    uint public targetAmount = 1000000000000000000;\n\n    bool public exchangeContractApproval;\n\n    mapping(uint => Game) public games;\n    mapping(uint => mapping(address => uint)) public addressTicketCount;\n    mapping(address => bool) public addressHasPaidGsnFee;\n    mapping(bytes32 => bool) public pendingQueries;\n\n    //TODO: Remove event after thorough testing\n    event Tickets(address[] tickets);\n\n    event GameEnded(uint gameNumber);\n    event BoughtTicket(address buyer, uint numOfTickets, uint totalTicketPrice);\n    event LogNewProvableQuery(string description);\n    event RandomNumberGenerated(uint16 randomNumber);\n    event WinnerSelected(address winner, uint amount, uint gameNumber);\n\n\n\n    modifier atLeastOneTicket(uint numberOfTickets){\n        require(numberOfTickets >= 1, \"Cannot buy less than one ticket\");\n        _;\n    }\n\n    modifier ticketLimitNotExceed(uint numberOfTickets){\n        require((games[gameNumber].tickets.length + numberOfTickets) <= maximumPurchasableTickets, \"Total ticket per game limit exceeded\");\n        _;\n    }\n\n    modifier maxTicketPerAddressLimitNotExceed(address _address, uint numberOfTickets){\n        require((addressTicketCount[gameNumber][_address] + numberOfTickets) <= maximumTicketsPerAddress, \"Maximum ticket limit per address exceeded\");\n        _;\n    }\n\n    modifier isCalledByAProvableCallbackAddress(address caller){\n        require(caller == provable_cbAddress(), \"Callback can only be called by a provable callback address\");\n        _;\n    }\n\n    modifier queryIdHasNotBeenProcessed(bytes32 queryId){\n        require (pendingQueries[queryId] == true);\n        _;\n    }\n\n    modifier allCurrentGameTicketsHaveBeenBought(){\n        require(games[gameNumber].tickets.length == maximumPurchasableTickets);\n        _;\n    }\n\n    constructor(IERC20 ngnt, IUniswapExchange uniswap, IRelayHub relayHub,uint _maximumPurchasableTickets) public {\n        GSNRecipient.initialize();\n        _ngnt = ngnt;\n        _uniswap = uniswap;\n        _relayHub = relayHub;\n        maximumPurchasableTickets = _maximumPurchasableTickets;\n    }\n\n    function buyTicket(uint numberOfTickets) atLeastOneTicket(numberOfTickets) ticketLimitNotExceed(numberOfTickets)\n    maxTicketPerAddressLimitNotExceed(_msgSender(), numberOfTickets)\n    external\n    {\n        uint totalTicketPrice = ticketPrice.mul(numberOfTickets);\n        uint totalTicketForAddress = addressTicketCount[gameNumber][_msgSender()];\n\n        if (!addressHasPaidGsnFee[_msgSender()]) {\n            uint gsnFee = _ngnt.gsnFee();\n            if (gsnFee <= 0) {\n                gsnFee = 5000;\n            }\n\n            totalTicketPrice = totalTicketPrice.sub(gsnFee);\n            addressHasPaidGsnFee[_msgSender()] = true;\n        }\n\n        TOTAL_NGNT += totalTicketPrice;\n        _ngnt.transferFrom(_msgSender(), address(this), totalTicketPrice);\n        totalTicketForAddress += numberOfTickets;\n        addressTicketCount[gameNumber][_msgSender()] = totalTicketForAddress;\n\n        Game storage game = games[gameNumber];\n        game.gameNumber = gameNumber;\n        for(uint i = 0; i < numberOfTickets; i++){\n            game.tickets.push(_msgSender());\n        }\n\n        address[] memory tickets = game.tickets;\n        emit BoughtTicket(_msgSender(), numberOfTickets, totalTicketPrice);\n        emit Tickets(tickets);\n\n        if(games[gameNumber].tickets.length == maximumPurchasableTickets){\n            if(gameNumber.mod(5) == 0){\n                //swapNgntForEth();\n                //fundRecipient();\n            }\n            //endGame();\n        }\n    }\n\n    function numberOfTicketsLeft() external view returns (uint){\n        Game storage game = games[gameNumber];\n        uint ticketsBought = game.tickets.length;\n        return maximumPurchasableTickets.sub(ticketsBought);\n    }\n\n    function numberOfTicketsPurchased() external view returns(uint){\n        Game storage game = games[gameNumber];\n        uint ticketsBought = game.tickets.length;\n        return ticketsBought;\n    }\n\n    function getNgntAddress() external view returns(address){\n        return address(_ngnt);\n    }\n\n    function __callback(bytes32 queryId, string memory _result) isCalledByAProvableCallbackAddress(_msgSender())\n    //allCurrentGameTicketsHaveBeenBought()\n    queryIdHasNotBeenProcessed(queryId) public\n    {\n        if(games[gameNumber].tickets.length == maximumPurchasableTickets){\n            uint16 randomIndex = _result.toUint();\n            emit RandomNumberGenerated(randomIndex);\n            delete pendingQueries[queryId];\n\n            sendNgntToWinner(randomIndex);\n            resetGame();\n        }\n    }\n\n    function generateRandomNumber() private {\n        if (provable_getPrice(\"WolframAlpha\") > address(this).balance) {\n            emit LogNewProvableQuery(\"Provable query was NOT sent, please add some ETH to cover for the query fee\");\n        }\n        else {\n            uint lastIndex = 0;\n            Game storage game = games[gameNumber];\n            lastIndex = game.tickets.length - 1;\n\n            bytes memory query;\n            query = abi.encodePacked(SafeIntCast.toString(lastIndex));\n            query = abi.encodePacked(\"random number between 0 and \", query);\n            string memory provableQuery = string(query);\n\n            emit LogNewProvableQuery(\"Provable query was sent, standing by for the answer...\");\n            bytes32 queryId = provable_query(\"WolframAlpha\", provableQuery);\n            pendingQueries[queryId] = true;\n        }\n    }\n\n    function startNextGame() public {\n        generateRandomNumber();\n    }\n\n    function sendNgntToWinner(uint randomIndex) private {\n        Game storage game = games[gameNumber];\n        address winner = game.tickets[randomIndex];\n        game.gameWinner = winner;\n\n        uint amountWon = TOTAL_NGNT.mul(90).div(100);\n        commission += TOTAL_NGNT.sub(amountWon);\n        _ngnt.transfer(winner, amountWon);\n\n        emit WinnerSelected(winner, amountWon, gameNumber);\n    }\n\n    function swapNgntForEth() private {\n        if(address(this).balance < oneEther){\n            if(!exchangeContractApproval){\n                _ngnt.approve(address(_uniswap), 100000000000);\n                exchangeContractApproval = true;\n            }\n\n            uint tokenSold = commission;\n            _uniswap.tokenToEthSwapInput(tokenSold, minimumEther, deadline);\n            commission = 0;\n        }\n    }\n\n    function fundRecipient() private {\n        uint relayBalance = _relayHub.balanceOf(address(this));\n        if(relayBalance < targetAmount){\n            uint amountDifference = targetAmount.sub(relayBalance);\n            if(address(this).balance > amountDifference){\n                _relayHub.depositFor.value(amountDifference)(address(this));\n            }else{\n                _relayHub.depositFor.value(address(this).balance)(address(this));\n            }\n        }\n    }\n\n    function resetGame() private {\n        gameNumber++;\n        TOTAL_NGNT = 0;\n    }\n\n    function endGame() private {\n        emit GameEnded(gameNumber);\n        generateRandomNumber();\n    }\n\n    function acceptRelayedCall(\n        address relay,\n        address from,\n        bytes calldata encodedFunction,\n        uint256 transactionFee,\n        uint256 gasPrice,\n        uint256 gasLimit,\n        uint256 nonce,\n        bytes calldata approvalData,\n        uint256 maxPossibleCharge\n    ) external view returns (uint256, bytes memory) {\n        bytes4 calldataSelector = LibBytes.readBytes4(encodedFunction, 0);\n        if (calldataSelector == this.buyTicket.selector) {\n            return _approveRelayedCall();\n        } else {\n            return _rejectRelayedCall(uint256(GSNErrorCodes.NOT_ALLOWED));\n        }\n    }\n\n    function _preRelayedCall(bytes memory context) internal returns (bytes32) {\n    }\n\n    function _postRelayedCall(bytes memory context, bool, uint256 actualCharge, bytes32) internal {\n    }\n\n    function  () external payable {\n    }\n}\n",
  "sourcePath": "/Users/naijasatoshi/Documents/Projects/win-ngnt-smartcontract/contracts/WinNgnt.sol",
  "compiler": {
    "name": "solc",
    "version": "0.5.8+commit.23d335f2.Emscripten.clang"
  },
  "schemaVersion": "3.0.16",
  "updatedAt": "2020-03-19T10:47:56.688Z",
  "devdoc": {
    "methods": {
      "getHubAddr()": {
        "details": "Returns the address of the {IRelayHub} contract for this recipient."
      },
      "postRelayedCall(bytes,bool,uint256,bytes32)": {
        "details": "See `IRelayRecipient.postRelayedCall`.     * This function should not be overriden directly, use `_postRelayedCall` instead.     * * Requirements:     * - the caller must be the `RelayHub` contract."
      },
      "preRelayedCall(bytes)": {
        "details": "See `IRelayRecipient.preRelayedCall`.     * This function should not be overriden directly, use `_preRelayedCall` instead.     * * Requirements:     * - the caller must be the `RelayHub` contract."
      },
      "relayHubVersion()": {
        "details": "Returns the version string of the {IRelayHub} for which this recipient implementation was built. If {_upgradeRelayHub} is used, the new {IRelayHub} instance should be compatible with this version."
      }
    }
  },
  "userdoc": {
    "methods": {}
  }
}