{
  "fileName": "NGNT.sol",
  "contractName": "NGNT",
  "source": "pragma solidity ^0.5.0;\n\nimport '@openzeppelin/contracts-ethereum-package/contracts/token/ERC20/ERC20.sol';\nimport \"@openzeppelin/contracts-ethereum-package/contracts/GSN/GSNRecipient.sol\";\nimport '@openzeppelin/contracts-ethereum-package/contracts/math/SafeMath.sol';\n\nimport './Ownable.sol';\nimport './Blacklistable.sol';\nimport './Pausable.sol';\n//import './RelayedCallHelper.sol';\n\ncontract V1 is GSNRecipient, Ownable, ERC20, Pausable, Blacklistable {\n    using SafeMath for uint256;\n\n    string public name;\n    string public symbol;\n    uint8 public decimals;\n    string public currency;\n    address public masterMinter;\n    bool internal initialized;\n\n    uint256 public gsnFee;\n    mapping(address => uint256) internal balances;\n    mapping(address => mapping(address => uint256)) internal allowed;\n    uint256 internal totalSupply_;\n    mapping(address => bool) internal minters;\n    mapping(address => uint256) internal minterAllowed;\n\n    event Mint(address indexed minter, address indexed to, uint256 amount);\n    event Burn(address indexed burner, uint256 amount);\n    event GSNFeeUpdated(uint256 oldFee, uint256 newFee);\n    event GSNFeeCharged(uint256 fee, address user);\n    event MinterConfigured(address indexed minter, uint256 minterAllowedAmount);\n    event MinterRemoved(address indexed oldMinter);\n    event MasterMinterChanged(address indexed newMasterMinter);\n\n    function initialize(\n        string memory _name,\n        string memory _symbol,\n        string memory _currency,\n        uint8 _decimals,\n        address _masterMinter,\n        address _pauser,\n        address _blacklister,\n        address _owner,\n        uint256 _gsnFee\n    ) public payable {\n        require(!initialized, \"Contract is not initialized.\");\n        require(_masterMinter != address(0), \"Master minter address must be burned token address.\");\n        require(_pauser != address(0), \"Pauser address must be burned token address.\");\n        require(_blacklister != address(0), \"Blacklister address must be burned token address.\");\n        require(_owner != address(0), \"Owner address must be burned token address.\");\n\n        GSNRecipient.initialize();\n        name = _name;\n        symbol = _symbol;\n        currency = _currency;\n        decimals = _decimals;\n        masterMinter = _masterMinter;\n        pauser = _pauser;\n        blacklister = _blacklister;\n        gsnFee = _gsnFee;\n        setOwner(_owner);\n        initialized = true;\n    }\n\n    /**\n      * @dev Throws if called by any account other than a minter\n    */\n    modifier onlyMinters() {\n        require(minters[_msgSender()] == true, \"Calling address is not a minter.\");\n        _;\n    }\n\n    /**\n     * @dev Function to mint tokens\n     * @param _to The address that will receive the minted tokens.\n     * @param _amount The amount of tokens to mint. Must be less than or equal to the minterAllowance of the caller.\n     * @return A boolean that indicates if the operation was successful.\n    */\n    function mint(address _to, uint256 _amount) public payable\n    whenNotPaused\n    onlyMinters\n    notBlacklisted(_msgSender())\n    notBlacklisted(_to)\n    returns (bool) {\n        require(_to != address(0), \"Receiving address must not be burned tokens address.\");\n        require(_amount > 0, \"Amount to be minted must be greater than zero.\");\n\n        uint256 mintingAllowedAmount = minterAllowed[_msgSender()];\n        require(_amount <= mintingAllowedAmount, \"Amount to be minted must not be greater than allowed mintable amount.\");\n\n        totalSupply_ = totalSupply_.add(_amount);\n        balances[_to] = balances[_to].add(_amount);\n        minterAllowed[_msgSender()] = mintingAllowedAmount.sub(_amount);\n        emit Mint(_msgSender(), _to, _amount);\n        emit Transfer(address(0), _to, _amount);\n        return true;\n    }\n\n    /**\n     * @dev Throws if called by any account other than the masterMinter\n    */\n    modifier onlyMasterMinter() {\n        require(_msgSender() == masterMinter, \"This function can only be called by the master minter.\");\n        _;\n    }\n\n    /**\n     * @dev Get minter allowance for an account\n     * @param minter The address of the minter\n     */\n    function minterAllowance(address minter) public view returns (uint256) {\n        return minterAllowed[minter];\n    }\n\n    /**\n     * @dev Checks if account is a minter\n     * @param account The address to check\n    */\n    function isMinter(address account) public view returns (bool) {\n        return minters[account];\n    }\n\n    /**\n     * @dev Get allowed amount for an account\n     * @param owner address The account owner\n     * @param spender address The account spender\n    */\n    function allowance(address owner, address spender) public view returns (uint256) {\n        return allowed[owner][spender];\n    }\n\n    /**\n     * @dev Get totalSupply of token\n    */\n    function totalSupply() public view returns (uint256) {\n        return totalSupply_;\n    }\n\n    /**\n     * @dev Get token balance of an account\n     * @param account address The account\n     */\n    function balanceOf(address account) public view returns (uint256) {\n        return balances[account];\n    }\n\n    /**\n     * @dev Adds blacklisted check to approve\n     * @return True if the operation was successful.\n    */\n    function approve(address _spender, uint256 _value) public\n    whenNotPaused\n    notBlacklisted(_msgSender())\n    notBlacklisted(_spender)\n    returns (bool) {\n        allowed[_msgSender()][_spender] = _value;\n        emit Approval(_msgSender(), _spender, _value);\n        return true;\n    }\n\n    /**\n     * @dev Transfer tokens from one address to another.\n     * @param _from address The address which you want to send tokens from\n     * @param _to address The address which you want to transfer to\n     * @param _value uint256 the amount of tokens to be transferred\n     * @return bool success\n    */\n    function transferFrom(address _from, address _to, uint256 _value) public\n    whenNotPaused\n    notBlacklisted(_to)\n    notBlacklisted(_msgSender())\n    notBlacklisted(_from)  returns (bool) {\n        require(_to != address(0), \"Receiving address must not be burned token address.\");\n        require(_value <= balances[_from], \"Amount to be sent must not be greater than sending account balance.\");\n        require(_value <= allowed[_from][_msgSender()], \"Amount to be sent must not be greater than allowable balance.\");\n\n        balances[_from] = balances[_from].sub(_value);\n        balances[_to] = balances[_to].add(_value);\n        allowed[_from][_msgSender()] = allowed[_from][_msgSender()].sub(_value);\n        emit Transfer(_from, _to, _value);\n        return true;\n    }\n\n    /**\n     * @dev transfer token for a specified address\n     * @param _to The address to transfer to.\n     * @param _value The amount to be transferred.\n     * @return bool success\n    */\n    function transfer(address _to, uint256 _value) public\n    whenNotPaused\n    notBlacklisted(_msgSender())\n    notBlacklisted(_to)\n    returns (bool) {\n        require(_to != address(0), \"Receiving address must not be burned token address.\");\n        require(_value <= balances[_msgSender()], \"Amount to be sent must not be greater than sending account balance.\");\n\n        balances[_msgSender()] = balances[_msgSender()].sub(_value);\n        balances[_to] = balances[_to].add(_value);\n        emit Transfer(_msgSender(), _to, _value);\n        return true;\n    }\n\n    /**\n     * @dev Function to add/update a new minter\n     * @param minter The address of the minter\n     * @param minterAllowedAmount The minting amount allowed for the minter\n     * @return True if the operation was successful.\n    */\n    function configureMinter(address minter, uint256 minterAllowedAmount) public payable\n    whenNotPaused\n    onlyMasterMinter\n    returns (bool) {\n        minters[minter] = true;\n        minterAllowed[minter] = minterAllowedAmount;\n        emit MinterConfigured(minter, minterAllowedAmount);\n        return true;\n    }\n\n    /**\n     * @dev Function to remove a minter\n     * @param minter The address of the minter to remove\n     * @return True if the operation was successful.\n    */\n    function removeMinter(address minter) public payable\n    onlyMasterMinter\n    returns (bool) {\n        minters[minter] = false;\n        minterAllowed[minter] = 0;\n        emit MinterRemoved(minter);\n        return true;\n    }\n\n    /**\n     * @dev allows a minter to burn some of its own tokens\n     * Validates that caller is a minter and that sender is not blacklisted\n     * amount is less than or equal to the minter's account balance\n     * @param _amount uint256 the amount of tokens to be burned\n    */\n    function burn(uint256 _amount) public payable\n    whenNotPaused\n    onlyMinters\n    notBlacklisted(_msgSender())  {\n        uint256 balance = balances[_msgSender()];\n        require(_amount > 0, \"Amount to be burned must be greater than 0.\");\n        require(balance >= _amount, \"Amount to be burned must not be greater than account balance.\");\n\n        totalSupply_ = totalSupply_.sub(_amount);\n        balances[_msgSender()] = balance.sub(_amount);\n        emit Burn(_msgSender(), _amount);\n        emit Transfer(_msgSender(), address(0), _amount);\n    }\n\n    function updateMasterMinter(address _newMasterMinter) public\n    onlyOwner {\n        require(_newMasterMinter != address(0), \"New master minter address must not be burned token address.\");\n        masterMinter = _newMasterMinter;\n        emit MasterMinterChanged(masterMinter);\n    }\n\n    function updateGsnFee(uint256 _newGsnFee) public\n    //onlyOwner  \n    {\n        require(_newGsnFee != 0, \"Gns fee must not be 0.\");\n        uint256 oldFee = gsnFee;\n        gsnFee = _newGsnFee;\n        emit GSNFeeUpdated(oldFee, gsnFee);\n    }\n\n    event RelayedCall(string message);\n    function acceptRelayedCall(\n        address relay,\n        address from,\n        bytes calldata encodedFunction,\n        uint256 transactionFee,\n        uint256 gasPrice,\n        uint256 gasLimit,\n        uint256 nonce,\n        bytes calldata approvalData,\n        uint256 maxPossibleCharge\n    ) external view returns (uint256, bytes memory) {\n        return _approveRelayedCall();\n        // return RelayedCallHelper.acceptOrReject(\n        //     encodedFunction,\n        //     [this.transfer.selector, this.transferFrom.selector, this.approve.selector],\n        //     balances[_msgSender()],\n        //     gsnFee);\n    }\n\n    function postRelayedCall(bytes calldata context,\n        bool success,\n        uint actualCharge,\n        bytes32 preRetVal\n    ) external {\n        balances[_msgSender()] = balances[_msgSender()].sub(gsnFee);\n        balances[owner()] = balances[owner()].add(gsnFee);\n        emit GSNFeeCharged(gsnFee, _msgSender());\n    }\n\n    function() external payable {}\n}\n\ncontract NGNT is V1 {\n\n}\n",
  "sourcePath": "contracts/NGNT.sol",
  "abi": [
    {
      "anonymous": false,
      "inputs": [
        {
          "indexed": true,
          "internalType": "address",
          "name": "owner",
          "type": "address"
        },
        {
          "indexed": true,
          "internalType": "address",
          "name": "spender",
          "type": "address"
        },
        {
          "indexed": false,
          "internalType": "uint256",
          "name": "value",
          "type": "uint256"
        }
      ],
      "name": "Approval",
      "type": "event"
    },
    {
      "anonymous": false,
      "inputs": [
        {
          "indexed": true,
          "internalType": "address",
          "name": "_account",
          "type": "address"
        }
      ],
      "name": "Blacklisted",
      "type": "event"
    },
    {
      "anonymous": false,
      "inputs": [
        {
          "indexed": true,
          "internalType": "address",
          "name": "newBlacklister",
          "type": "address"
        }
      ],
      "name": "BlacklisterChanged",
      "type": "event"
    },
    {
      "anonymous": false,
      "inputs": [
        {
          "indexed": true,
          "internalType": "address",
          "name": "burner",
          "type": "address"
        },
        {
          "indexed": false,
          "internalType": "uint256",
          "name": "amount",
          "type": "uint256"
        }
      ],
      "name": "Burn",
      "type": "event"
    },
    {
      "anonymous": false,
      "inputs": [
        {
          "indexed": false,
          "internalType": "uint256",
          "name": "fee",
          "type": "uint256"
        },
        {
          "indexed": false,
          "internalType": "address",
          "name": "user",
          "type": "address"
        }
      ],
      "name": "GSNFeeCharged",
      "type": "event"
    },
    {
      "anonymous": false,
      "inputs": [
        {
          "indexed": false,
          "internalType": "uint256",
          "name": "oldFee",
          "type": "uint256"
        },
        {
          "indexed": false,
          "internalType": "uint256",
          "name": "newFee",
          "type": "uint256"
        }
      ],
      "name": "GSNFeeUpdated",
      "type": "event"
    },
    {
      "anonymous": false,
      "inputs": [
        {
          "indexed": true,
          "internalType": "address",
          "name": "newMasterMinter",
          "type": "address"
        }
      ],
      "name": "MasterMinterChanged",
      "type": "event"
    },
    {
      "anonymous": false,
      "inputs": [
        {
          "indexed": true,
          "internalType": "address",
          "name": "minter",
          "type": "address"
        },
        {
          "indexed": true,
          "internalType": "address",
          "name": "to",
          "type": "address"
        },
        {
          "indexed": false,
          "internalType": "uint256",
          "name": "amount",
          "type": "uint256"
        }
      ],
      "name": "Mint",
      "type": "event"
    },
    {
      "anonymous": false,
      "inputs": [
        {
          "indexed": true,
          "internalType": "address",
          "name": "minter",
          "type": "address"
        },
        {
          "indexed": false,
          "internalType": "uint256",
          "name": "minterAllowedAmount",
          "type": "uint256"
        }
      ],
      "name": "MinterConfigured",
      "type": "event"
    },
    {
      "anonymous": false,
      "inputs": [
        {
          "indexed": true,
          "internalType": "address",
          "name": "oldMinter",
          "type": "address"
        }
      ],
      "name": "MinterRemoved",
      "type": "event"
    },
    {
      "anonymous": false,
      "inputs": [
        {
          "indexed": false,
          "internalType": "address",
          "name": "previousOwner",
          "type": "address"
        },
        {
          "indexed": false,
          "internalType": "address",
          "name": "newOwner",
          "type": "address"
        }
      ],
      "name": "OwnershipTransferred",
      "type": "event"
    },
    {
      "anonymous": false,
      "inputs": [],
      "name": "Pause",
      "type": "event"
    },
    {
      "anonymous": false,
      "inputs": [
        {
          "indexed": true,
          "internalType": "address",
          "name": "newAddress",
          "type": "address"
        }
      ],
      "name": "PauserChanged",
      "type": "event"
    },
    {
      "anonymous": false,
      "inputs": [
        {
          "indexed": true,
          "internalType": "address",
          "name": "oldRelayHub",
          "type": "address"
        },
        {
          "indexed": true,
          "internalType": "address",
          "name": "newRelayHub",
          "type": "address"
        }
      ],
      "name": "RelayHubChanged",
      "type": "event"
    },
    {
      "anonymous": false,
      "inputs": [
        {
          "indexed": false,
          "internalType": "string",
          "name": "message",
          "type": "string"
        }
      ],
      "name": "RelayedCall",
      "type": "event"
    },
    {
      "anonymous": false,
      "inputs": [
        {
          "indexed": true,
          "internalType": "address",
          "name": "from",
          "type": "address"
        },
        {
          "indexed": true,
          "internalType": "address",
          "name": "to",
          "type": "address"
        },
        {
          "indexed": false,
          "internalType": "uint256",
          "name": "value",
          "type": "uint256"
        }
      ],
      "name": "Transfer",
      "type": "event"
    },
    {
      "anonymous": false,
      "inputs": [
        {
          "indexed": true,
          "internalType": "address",
          "name": "_account",
          "type": "address"
        }
      ],
      "name": "UnBlacklisted",
      "type": "event"
    },
    {
      "anonymous": false,
      "inputs": [],
      "name": "Unpause",
      "type": "event"
    },
    {
      "payable": true,
      "stateMutability": "payable",
      "type": "fallback"
    },
    {
      "constant": true,
      "inputs": [
        {
          "internalType": "address",
          "name": "relay",
          "type": "address"
        },
        {
          "internalType": "address",
          "name": "from",
          "type": "address"
        },
        {
          "internalType": "bytes",
          "name": "encodedFunction",
          "type": "bytes"
        },
        {
          "internalType": "uint256",
          "name": "transactionFee",
          "type": "uint256"
        },
        {
          "internalType": "uint256",
          "name": "gasPrice",
          "type": "uint256"
        },
        {
          "internalType": "uint256",
          "name": "gasLimit",
          "type": "uint256"
        },
        {
          "internalType": "uint256",
          "name": "nonce",
          "type": "uint256"
        },
        {
          "internalType": "bytes",
          "name": "approvalData",
          "type": "bytes"
        },
        {
          "internalType": "uint256",
          "name": "maxPossibleCharge",
          "type": "uint256"
        }
      ],
      "name": "acceptRelayedCall",
      "outputs": [
        {
          "internalType": "uint256",
          "name": "",
          "type": "uint256"
        },
        {
          "internalType": "bytes",
          "name": "",
          "type": "bytes"
        }
      ],
      "payable": false,
      "stateMutability": "view",
      "type": "function"
    },
    {
      "constant": true,
      "inputs": [
        {
          "internalType": "address",
          "name": "owner",
          "type": "address"
        },
        {
          "internalType": "address",
          "name": "spender",
          "type": "address"
        }
      ],
      "name": "allowance",
      "outputs": [
        {
          "internalType": "uint256",
          "name": "",
          "type": "uint256"
        }
      ],
      "payable": false,
      "stateMutability": "view",
      "type": "function"
    },
    {
      "constant": false,
      "inputs": [
        {
          "internalType": "address",
          "name": "_spender",
          "type": "address"
        },
        {
          "internalType": "uint256",
          "name": "_value",
          "type": "uint256"
        }
      ],
      "name": "approve",
      "outputs": [
        {
          "internalType": "bool",
          "name": "",
          "type": "bool"
        }
      ],
      "payable": false,
      "stateMutability": "nonpayable",
      "type": "function"
    },
    {
      "constant": true,
      "inputs": [
        {
          "internalType": "address",
          "name": "account",
          "type": "address"
        }
      ],
      "name": "balanceOf",
      "outputs": [
        {
          "internalType": "uint256",
          "name": "",
          "type": "uint256"
        }
      ],
      "payable": false,
      "stateMutability": "view",
      "type": "function"
    },
    {
      "constant": false,
      "inputs": [
        {
          "internalType": "address",
          "name": "_account",
          "type": "address"
        }
      ],
      "name": "blacklist",
      "outputs": [],
      "payable": false,
      "stateMutability": "nonpayable",
      "type": "function"
    },
    {
      "constant": true,
      "inputs": [],
      "name": "blacklister",
      "outputs": [
        {
          "internalType": "address",
          "name": "",
          "type": "address"
        }
      ],
      "payable": false,
      "stateMutability": "view",
      "type": "function"
    },
    {
      "constant": false,
      "inputs": [
        {
          "internalType": "uint256",
          "name": "_amount",
          "type": "uint256"
        }
      ],
      "name": "burn",
      "outputs": [],
      "payable": true,
      "stateMutability": "payable",
      "type": "function"
    },
    {
      "constant": false,
      "inputs": [
        {
          "internalType": "address",
          "name": "minter",
          "type": "address"
        },
        {
          "internalType": "uint256",
          "name": "minterAllowedAmount",
          "type": "uint256"
        }
      ],
      "name": "configureMinter",
      "outputs": [
        {
          "internalType": "bool",
          "name": "",
          "type": "bool"
        }
      ],
      "payable": true,
      "stateMutability": "payable",
      "type": "function"
    },
    {
      "constant": true,
      "inputs": [],
      "name": "currency",
      "outputs": [
        {
          "internalType": "string",
          "name": "",
          "type": "string"
        }
      ],
      "payable": false,
      "stateMutability": "view",
      "type": "function"
    },
    {
      "constant": true,
      "inputs": [],
      "name": "decimals",
      "outputs": [
        {
          "internalType": "uint8",
          "name": "",
          "type": "uint8"
        }
      ],
      "payable": false,
      "stateMutability": "view",
      "type": "function"
    },
    {
      "constant": false,
      "inputs": [
        {
          "internalType": "address",
          "name": "spender",
          "type": "address"
        },
        {
          "internalType": "uint256",
          "name": "subtractedValue",
          "type": "uint256"
        }
      ],
      "name": "decreaseAllowance",
      "outputs": [
        {
          "internalType": "bool",
          "name": "",
          "type": "bool"
        }
      ],
      "payable": false,
      "stateMutability": "nonpayable",
      "type": "function"
    },
    {
      "constant": true,
      "inputs": [],
      "name": "getHubAddr",
      "outputs": [
        {
          "internalType": "address",
          "name": "",
          "type": "address"
        }
      ],
      "payable": false,
      "stateMutability": "view",
      "type": "function"
    },
    {
      "constant": true,
      "inputs": [],
      "name": "gsnFee",
      "outputs": [
        {
          "internalType": "uint256",
          "name": "",
          "type": "uint256"
        }
      ],
      "payable": false,
      "stateMutability": "view",
      "type": "function"
    },
    {
      "constant": false,
      "inputs": [
        {
          "internalType": "address",
          "name": "spender",
          "type": "address"
        },
        {
          "internalType": "uint256",
          "name": "addedValue",
          "type": "uint256"
        }
      ],
      "name": "increaseAllowance",
      "outputs": [
        {
          "internalType": "bool",
          "name": "",
          "type": "bool"
        }
      ],
      "payable": false,
      "stateMutability": "nonpayable",
      "type": "function"
    },
    {
      "constant": false,
      "inputs": [
        {
          "internalType": "string",
          "name": "_name",
          "type": "string"
        },
        {
          "internalType": "string",
          "name": "_symbol",
          "type": "string"
        },
        {
          "internalType": "string",
          "name": "_currency",
          "type": "string"
        },
        {
          "internalType": "uint8",
          "name": "_decimals",
          "type": "uint8"
        },
        {
          "internalType": "address",
          "name": "_masterMinter",
          "type": "address"
        },
        {
          "internalType": "address",
          "name": "_pauser",
          "type": "address"
        },
        {
          "internalType": "address",
          "name": "_blacklister",
          "type": "address"
        },
        {
          "internalType": "address",
          "name": "_owner",
          "type": "address"
        },
        {
          "internalType": "uint256",
          "name": "_gsnFee",
          "type": "uint256"
        }
      ],
      "name": "initialize",
      "outputs": [],
      "payable": true,
      "stateMutability": "payable",
      "type": "function"
    },
    {
      "constant": false,
      "inputs": [],
      "name": "initialize",
      "outputs": [],
      "payable": false,
      "stateMutability": "nonpayable",
      "type": "function"
    },
    {
      "constant": true,
      "inputs": [
        {
          "internalType": "address",
          "name": "_account",
          "type": "address"
        }
      ],
      "name": "isBlacklisted",
      "outputs": [
        {
          "internalType": "bool",
          "name": "",
          "type": "bool"
        }
      ],
      "payable": false,
      "stateMutability": "view",
      "type": "function"
    },
    {
      "constant": true,
      "inputs": [
        {
          "internalType": "address",
          "name": "account",
          "type": "address"
        }
      ],
      "name": "isMinter",
      "outputs": [
        {
          "internalType": "bool",
          "name": "",
          "type": "bool"
        }
      ],
      "payable": false,
      "stateMutability": "view",
      "type": "function"
    },
    {
      "constant": true,
      "inputs": [],
      "name": "masterMinter",
      "outputs": [
        {
          "internalType": "address",
          "name": "",
          "type": "address"
        }
      ],
      "payable": false,
      "stateMutability": "view",
      "type": "function"
    },
    {
      "constant": false,
      "inputs": [
        {
          "internalType": "address",
          "name": "_to",
          "type": "address"
        },
        {
          "internalType": "uint256",
          "name": "_amount",
          "type": "uint256"
        }
      ],
      "name": "mint",
      "outputs": [
        {
          "internalType": "bool",
          "name": "",
          "type": "bool"
        }
      ],
      "payable": true,
      "stateMutability": "payable",
      "type": "function"
    },
    {
      "constant": true,
      "inputs": [
        {
          "internalType": "address",
          "name": "minter",
          "type": "address"
        }
      ],
      "name": "minterAllowance",
      "outputs": [
        {
          "internalType": "uint256",
          "name": "",
          "type": "uint256"
        }
      ],
      "payable": false,
      "stateMutability": "view",
      "type": "function"
    },
    {
      "constant": true,
      "inputs": [],
      "name": "name",
      "outputs": [
        {
          "internalType": "string",
          "name": "",
          "type": "string"
        }
      ],
      "payable": false,
      "stateMutability": "view",
      "type": "function"
    },
    {
      "constant": true,
      "inputs": [],
      "name": "owner",
      "outputs": [
        {
          "internalType": "address",
          "name": "",
          "type": "address"
        }
      ],
      "payable": false,
      "stateMutability": "view",
      "type": "function"
    },
    {
      "constant": false,
      "inputs": [],
      "name": "pause",
      "outputs": [],
      "payable": false,
      "stateMutability": "nonpayable",
      "type": "function"
    },
    {
      "constant": true,
      "inputs": [],
      "name": "paused",
      "outputs": [
        {
          "internalType": "bool",
          "name": "",
          "type": "bool"
        }
      ],
      "payable": false,
      "stateMutability": "view",
      "type": "function"
    },
    {
      "constant": true,
      "inputs": [],
      "name": "pauser",
      "outputs": [
        {
          "internalType": "address",
          "name": "",
          "type": "address"
        }
      ],
      "payable": false,
      "stateMutability": "view",
      "type": "function"
    },
    {
      "constant": false,
      "inputs": [
        {
          "internalType": "bytes",
          "name": "context",
          "type": "bytes"
        },
        {
          "internalType": "bool",
          "name": "success",
          "type": "bool"
        },
        {
          "internalType": "uint256",
          "name": "actualCharge",
          "type": "uint256"
        },
        {
          "internalType": "bytes32",
          "name": "preRetVal",
          "type": "bytes32"
        }
      ],
      "name": "postRelayedCall",
      "outputs": [],
      "payable": false,
      "stateMutability": "nonpayable",
      "type": "function"
    },
    {
      "constant": false,
      "inputs": [
        {
          "internalType": "bytes",
          "name": "context",
          "type": "bytes"
        }
      ],
      "name": "preRelayedCall",
      "outputs": [
        {
          "internalType": "bytes32",
          "name": "",
          "type": "bytes32"
        }
      ],
      "payable": false,
      "stateMutability": "nonpayable",
      "type": "function"
    },
    {
      "constant": true,
      "inputs": [],
      "name": "relayHubVersion",
      "outputs": [
        {
          "internalType": "string",
          "name": "",
          "type": "string"
        }
      ],
      "payable": false,
      "stateMutability": "view",
      "type": "function"
    },
    {
      "constant": false,
      "inputs": [
        {
          "internalType": "address",
          "name": "minter",
          "type": "address"
        }
      ],
      "name": "removeMinter",
      "outputs": [
        {
          "internalType": "bool",
          "name": "",
          "type": "bool"
        }
      ],
      "payable": true,
      "stateMutability": "payable",
      "type": "function"
    },
    {
      "constant": true,
      "inputs": [],
      "name": "symbol",
      "outputs": [
        {
          "internalType": "string",
          "name": "",
          "type": "string"
        }
      ],
      "payable": false,
      "stateMutability": "view",
      "type": "function"
    },
    {
      "constant": true,
      "inputs": [],
      "name": "totalSupply",
      "outputs": [
        {
          "internalType": "uint256",
          "name": "",
          "type": "uint256"
        }
      ],
      "payable": false,
      "stateMutability": "view",
      "type": "function"
    },
    {
      "constant": false,
      "inputs": [
        {
          "internalType": "address",
          "name": "_to",
          "type": "address"
        },
        {
          "internalType": "uint256",
          "name": "_value",
          "type": "uint256"
        }
      ],
      "name": "transfer",
      "outputs": [
        {
          "internalType": "bool",
          "name": "",
          "type": "bool"
        }
      ],
      "payable": false,
      "stateMutability": "nonpayable",
      "type": "function"
    },
    {
      "constant": false,
      "inputs": [
        {
          "internalType": "address",
          "name": "_from",
          "type": "address"
        },
        {
          "internalType": "address",
          "name": "_to",
          "type": "address"
        },
        {
          "internalType": "uint256",
          "name": "_value",
          "type": "uint256"
        }
      ],
      "name": "transferFrom",
      "outputs": [
        {
          "internalType": "bool",
          "name": "",
          "type": "bool"
        }
      ],
      "payable": false,
      "stateMutability": "nonpayable",
      "type": "function"
    },
    {
      "constant": false,
      "inputs": [
        {
          "internalType": "address",
          "name": "newOwner",
          "type": "address"
        }
      ],
      "name": "transferOwnership",
      "outputs": [],
      "payable": false,
      "stateMutability": "nonpayable",
      "type": "function"
    },
    {
      "constant": false,
      "inputs": [
        {
          "internalType": "address",
          "name": "_account",
          "type": "address"
        }
      ],
      "name": "unBlacklist",
      "outputs": [],
      "payable": false,
      "stateMutability": "nonpayable",
      "type": "function"
    },
    {
      "constant": false,
      "inputs": [],
      "name": "unpause",
      "outputs": [],
      "payable": false,
      "stateMutability": "nonpayable",
      "type": "function"
    },
    {
      "constant": false,
      "inputs": [
        {
          "internalType": "address",
          "name": "_newBlacklister",
          "type": "address"
        }
      ],
      "name": "updateBlacklister",
      "outputs": [],
      "payable": false,
      "stateMutability": "nonpayable",
      "type": "function"
    },
    {
      "constant": false,
      "inputs": [
        {
          "internalType": "uint256",
          "name": "_newGsnFee",
          "type": "uint256"
        }
      ],
      "name": "updateGsnFee",
      "outputs": [],
      "payable": false,
      "stateMutability": "nonpayable",
      "type": "function"
    },
    {
      "constant": false,
      "inputs": [
        {
          "internalType": "address",
          "name": "_newMasterMinter",
          "type": "address"
        }
      ],
      "name": "updateMasterMinter",
      "outputs": [],
      "payable": false,
      "stateMutability": "nonpayable",
      "type": "function"
    },
    {
      "constant": false,
      "inputs": [
        {
          "internalType": "address",
          "name": "_newPauser",
          "type": "address"
        }
      ],
      "name": "updatePauser",
      "outputs": [],
      "payable": false,
      "stateMutability": "nonpayable",
      "type": "function"
    }
  ],
  "bytecode": "0x60806040526069805460ff60a01b19169055610023336001600160e01b0361002816565b61004a565b603380546001600160a01b0319166001600160a01b0392909216919091179055565b612ec3806100596000396000f3fe6080604052600436106102465760003560e01c80638129fc1c11610139578063aa20e1e4116100b6578063dd62ed3e1161007a578063dd62ed3e14610b74578063e06e0e2214610baf578063e5a6b10f14610c38578063f2fde38b14610c4d578063f9f92be414610c80578063fe575a8714610cb357610246565b8063aa20e1e414610ab1578063aa271e1a14610ae4578063ad38bf2214610b17578063ad61ccd514610b4a578063bd10243014610b5f57610246565b806395d89b41116100fd57806395d89b4114610a005780639d440f6814610a155780639fd0506d14610a2a578063a457c2d714610a3f578063a9059cbb14610a7857610246565b80638129fc1c1461081457806383947ea0146108295780638456cb59146109a35780638a6db9c3146109b85780638da5cb5b146109eb57610246565b80633d88571d116101c7578063554bab3c1161018b578063554bab3c146107095780635c975abb1461073c57806370a082311461075157806374e861d61461078457806380274db71461079957610246565b80633d88571d146106555780633f4ba83a1461067f57806340c10f191461069457806342966c68146106c05780634e44d956146106dd57610246565b80632766ba581161020e5780632766ba58146103bc5780633092afd51461059a578063313ce567146105c057806335d99f35146105eb578063395093511461061c57610246565b806306fdde0314610248578063095ea7b3146102d257806318160ddd1461031f5780631a8952661461034657806323b872dd14610379575b005b34801561025457600080fd5b5061025d610ce6565b6040805160208082528351818301528351919283929083019185019080838360005b8381101561029757818101518382015260200161027f565b50505050905090810190601f1680156102c45780820380516001836020036101000a031916815260200191505b509250505060405180910390f35b3480156102de57600080fd5b5061030b600480360360408110156102f557600080fd5b506001600160a01b038135169060200135610d74565b604080519115158252519081900360200190f35b34801561032b57600080fd5b50610334610e74565b60408051918252519081900360200190f35b34801561035257600080fd5b506102466004803603602081101561036957600080fd5b50356001600160a01b0316610e7b565b34801561038557600080fd5b5061030b6004803603606081101561039c57600080fd5b506001600160a01b03813581169160208101359091169060400135610edb565b61024660048036036101208110156103d357600080fd5b810190602081018135600160201b8111156103ed57600080fd5b8201836020820111156103ff57600080fd5b803590602001918460018302840111600160201b8311171561042057600080fd5b91908080601f0160208091040260200160405190810160405280939291908181526020018383808284376000920191909152509295949360208101935035915050600160201b81111561047257600080fd5b82018360208201111561048457600080fd5b803590602001918460018302840111600160201b831117156104a557600080fd5b91908080601f0160208091040260200160405190810160405280939291908181526020018383808284376000920191909152509295949360208101935035915050600160201b8111156104f757600080fd5b82018360208201111561050957600080fd5b803590602001918460018302840111600160201b8311171561052a57600080fd5b91908080601f0160208091040260200160405190810160405280939291908181526020018383808284376000920191909152509295505060ff8335169350506001600160a01b03602083013581169260408101358216925060608101358216916080820135169060a001356111da565b61030b600480360360208110156105b057600080fd5b50356001600160a01b031661140a565b3480156105cc57600080fd5b506105d56114c1565b6040805160ff9092168252519081900360200190f35b3480156105f757600080fd5b506106006114ca565b604080516001600160a01b039092168252519081900360200190f35b34801561062857600080fd5b5061030b6004803603604081101561063f57600080fd5b506001600160a01b0381351690602001356114d9565b34801561066157600080fd5b506102466004803603602081101561067857600080fd5b503561153b565b34801561068b57600080fd5b506102466115cd565b61030b600480360360408110156106aa57600080fd5b506001600160a01b03813516906020013561161c565b610246600480360360208110156106d657600080fd5b5035611924565b61030b600480360360408110156106f357600080fd5b506001600160a01b038135169060200135611b68565b34801561071557600080fd5b506102466004803603602081101561072c57600080fd5b50356001600160a01b0316611c46565b34801561074857600080fd5b5061030b611cce565b34801561075d57600080fd5b506103346004803603602081101561077457600080fd5b50356001600160a01b0316611cde565b34801561079057600080fd5b50610600611cf9565b3480156107a557600080fd5b50610334600480360360208110156107bc57600080fd5b810190602081018135600160201b8111156107d657600080fd5b8201836020820111156107e857600080fd5b803590602001918460018302840111600160201b8311171561080957600080fd5b509092509050611d08565b34801561082057600080fd5b50610246611da7565b34801561083557600080fd5b50610924600480360361012081101561084d57600080fd5b6001600160a01b038235811692602081013590911691810190606081016040820135600160201b81111561088057600080fd5b82018360208201111561089257600080fd5b803590602001918460018302840111600160201b831117156108b357600080fd5b9193909282359260208101359260408201359260608301359260a081019060800135600160201b8111156108e657600080fd5b8201836020820111156108f857600080fd5b803590602001918460018302840111600160201b8311171561091957600080fd5b919350915035611e51565b6040518083815260200180602001828103825283818151815260200191508051906020019080838360005b8381101561096757818101518382015260200161094f565b50505050905090810190601f1680156109945780820380516001836020036101000a031916815260200191505b50935050505060405180910390f35b3480156109af57600080fd5b50610246611e71565b3480156109c457600080fd5b50610334600480360360208110156109db57600080fd5b50356001600160a01b0316611ec6565b3480156109f757600080fd5b50610600611ee1565b348015610a0c57600080fd5b5061025d611ef0565b348015610a2157600080fd5b50610334611f4b565b348015610a3657600080fd5b50610600611f51565b348015610a4b57600080fd5b5061030b60048036036040811015610a6257600080fd5b506001600160a01b038135169060200135611f60565b348015610a8457600080fd5b5061030b60048036036040811015610a9b57600080fd5b506001600160a01b038135169060200135611fb4565b348015610abd57600080fd5b5061024660048036036020811015610ad457600080fd5b50356001600160a01b031661218d565b348015610af057600080fd5b5061030b60048036036020811015610b0757600080fd5b50356001600160a01b0316612247565b348015610b2357600080fd5b5061024660048036036020811015610b3a57600080fd5b50356001600160a01b0316612265565b348015610b5657600080fd5b5061025d6122ed565b348015610b6b57600080fd5b5061060061230c565b348015610b8057600080fd5b5061033460048036036040811015610b9757600080fd5b506001600160a01b038135811691602001351661231b565b348015610bbb57600080fd5b5061024660048036036080811015610bd257600080fd5b810190602081018135600160201b811115610bec57600080fd5b820183602082011115610bfe57600080fd5b803590602001918460018302840111600160201b83111715610c1f57600080fd5b9193509150803515159060208101359060400135612346565b348015610c4457600080fd5b5061025d61243a565b348015610c5957600080fd5b5061024660048036036020811015610c7057600080fd5b50356001600160a01b0316612495565b348015610c8c57600080fd5b5061024660048036036020811015610ca357600080fd5b50356001600160a01b0316612521565b348015610cbf57600080fd5b5061030b60048036036020811015610cd657600080fd5b50356001600160a01b0316612584565b606c805460408051602060026001851615610100026000190190941693909304601f81018490048402820184019092528181529291830182828015610d6c5780601f10610d4157610100808354040283529160200191610d6c565b820191906000526020600020905b815481529060010190602001808311610d4f57829003601f168201915b505050505081565b606954600090600160a01b900460ff1615610d8e57600080fd5b610d966125a2565b6001600160a01b0381166000908152606b602052604090205460ff1615610dbc57600080fd5b6001600160a01b0384166000908152606b6020526040902054849060ff1615610de457600080fd5b8360736000610df16125a2565b6001600160a01b03908116825260208083019390935260409182016000908120918a1680825291909352912091909155610e296125a2565b6001600160a01b03167f8c5be1e5ebec7d5bd14f71427d1e84f3dd0314c0f7b2291e5b200ac8c7c3b925866040518082815260200191505060405180910390a3506001949350505050565b6074545b90565b606a546001600160a01b03163314610e9257600080fd5b6001600160a01b0381166000818152606b6020526040808220805460ff19169055517f117e3210bb9aa7d9baff172026820255c6f6c30ba8999d1c2fd88e2848137c4e9190a250565b606954600090600160a01b900460ff1615610ef557600080fd5b6001600160a01b0383166000908152606b6020526040902054839060ff1615610f1d57600080fd5b610f256125a2565b6001600160a01b0381166000908152606b602052604090205460ff1615610f4b57600080fd5b6001600160a01b0386166000908152606b6020526040902054869060ff1615610f7357600080fd5b6001600160a01b038616610fb85760405162461bcd60e51b8152600401808060200182810382526033815260200180612e5c6033913960400191505060405180910390fd5b6001600160a01b03871660009081526072602052604090205485111561100f5760405162461bcd60e51b8152600401808060200182810382526043815260200180612ab66043913960600191505060405180910390fd5b6001600160a01b0387166000908152607360205260408120906110306125a2565b6001600160a01b03166001600160a01b031681526020019081526020016000205485111561108f5760405162461bcd60e51b815260040180806020018281038252603d815260200180612bfa603d913960400191505060405180910390fd5b6001600160a01b0387166000908152607260205260409020546110b8908663ffffffff6125da16565b6001600160a01b0380891660009081526072602052604080822093909355908816815220546110ed908663ffffffff61263716565b6001600160a01b03808816600090815260726020908152604080832094909455918a168152607390915290812061114f918791906111296125a2565b6001600160a01b031681526020810191909152604001600020549063ffffffff6125da16565b6001600160a01b0388166000908152607360205260408120906111706125a2565b6001600160a01b03166001600160a01b0316815260200190815260200160002081905550856001600160a01b0316876001600160a01b0316600080516020612cc6833981519152876040518082815260200191505060405180910390a35060019695505050505050565b607054600160a01b900460ff1615611239576040805162461bcd60e51b815260206004820152601c60248201527f436f6e7472616374206973206e6f7420696e697469616c697a65642e00000000604482015290519081900360640190fd5b6001600160a01b03851661127e5760405162461bcd60e51b8152600401808060200182810382526033815260200180612d826033913960400191505060405180910390fd5b6001600160a01b0384166112c35760405162461bcd60e51b815260040180806020018281038252602c815260200180612e30602c913960400191505060405180910390fd5b6001600160a01b0383166113085760405162461bcd60e51b8152600401808060200182810382526031815260200180612d236031913960400191505060405180910390fd5b6001600160a01b03821661134d5760405162461bcd60e51b815260040180806020018281038252602b815260200180612db5602b913960400191505060405180910390fd5b611355611da7565b885161136890606c9060208c01906129f7565b50875161137c90606d9060208b01906129f7565b50865161139090606f9060208a01906129f7565b50606e805460ff191660ff8816179055607080546001600160a01b03199081166001600160a01b0388811691909117909255606980548216878416179055606a805490911691851691909117905560718190556113ec82612691565b50506070805460ff60a01b1916600160a01b17905550505050505050565b6070546000906001600160a01b03166114216125a2565b6001600160a01b0316146114665760405162461bcd60e51b8152600401808060200182810382526036815260200180612c376036913960400191505060405180910390fd5b6001600160a01b0382166000818152607560209081526040808320805460ff191690556076909152808220829055517fe94479a9f7e1952cc78f2d6baab678adc1b772d936c6583def489e524cb666929190a2506001919050565b606e5460ff1681565b6070546001600160a01b031681565b60006115326114e66125a2565b8461152d85603560006114f76125a2565b6001600160a01b03908116825260208083019390935260409182016000908120918c16815292529020549063ffffffff61263716565b6126b3565b50600192915050565b80611586576040805162461bcd60e51b815260206004820152601660248201527523b739903332b29036bab9ba103737ba10313290181760511b604482015290519081900360640190fd5b6071805490829055604080518281526020810184905281517f1ad60cf17fda9805c1b11d0d7883d02ae846fdbb9ed9c6b3930f285ca127483c929181900390910190a15050565b6069546001600160a01b031633146115e457600080fd5b6069805460ff60a01b191690556040517f7805862f689e2f13df9f062ff482ad3ad112aca9e0847911ed832e158c525b3390600090a1565b606954600090600160a01b900460ff161561163657600080fd5b607560006116426125a2565b6001600160a01b0316815260208101919091526040016000205460ff1615156001146116b5576040805162461bcd60e51b815260206004820181905260248201527f43616c6c696e672061646472657373206973206e6f742061206d696e7465722e604482015290519081900360640190fd5b6116bd6125a2565b6001600160a01b0381166000908152606b602052604090205460ff16156116e357600080fd5b6001600160a01b0384166000908152606b6020526040902054849060ff161561170b57600080fd5b6001600160a01b0385166117505760405162461bcd60e51b8152600401808060200182810382526034815260200180612b8b6034913960400191505060405180910390fd5b6000841161178f5760405162461bcd60e51b815260040180806020018281038252602e815260200180612d54602e913960400191505060405180910390fd5b60006076600061179d6125a2565b6001600160a01b03166001600160a01b03168152602001908152602001600020549050808511156117ff5760405162461bcd60e51b8152600401808060200182810382526045815260200180612b1b6045913960600191505060405180910390fd5b607454611812908663ffffffff61263716565b6074556001600160a01b03861660009081526072602052604090205461183e908663ffffffff61263716565b6001600160a01b038716600090815260726020526040902055611867818663ffffffff6125da16565b607660006118736125a2565b6001600160a01b03166001600160a01b0316815260200190815260200160002081905550856001600160a01b03166118a96125a2565b6001600160a01b03167fab8530f87dc9b59234c4623bf917212bb2536d647574c8e7e5da92c2ede0c9f8876040518082815260200191505060405180910390a36040805186815290516001600160a01b03881691600091600080516020612cc68339815191529181900360200190a350600195945050505050565b606954600160a01b900460ff161561193b57600080fd5b607560006119476125a2565b6001600160a01b0316815260208101919091526040016000205460ff1615156001146119ba576040805162461bcd60e51b815260206004820181905260248201527f43616c6c696e672061646472657373206973206e6f742061206d696e7465722e604482015290519081900360640190fd5b6119c26125a2565b6001600160a01b0381166000908152606b602052604090205460ff16156119e857600080fd5b6000607260006119f66125a2565b6001600160a01b03166001600160a01b0316815260200190815260200160002054905060008311611a585760405162461bcd60e51b815260040180806020018281038252602b815260200180612c6d602b913960400191505060405180910390fd5b82811015611a975760405162461bcd60e51b815260040180806020018281038252603d815260200180612ce6603d913960400191505060405180910390fd5b607454611aaa908463ffffffff6125da16565b607455611abd818463ffffffff6125da16565b60726000611ac96125a2565b6001600160a01b03168152602081019190915260400160002055611aeb6125a2565b6001600160a01b03167fcc16f5dbb4873280815c1ee09dbd06736cffcc184412cf7a71a0fdb75d397ca5846040518082815260200191505060405180910390a26000611b356125a2565b6001600160a01b0316600080516020612cc6833981519152856040518082815260200191505060405180910390a3505050565b606954600090600160a01b900460ff1615611b8257600080fd5b6070546001600160a01b0316611b966125a2565b6001600160a01b031614611bdb5760405162461bcd60e51b8152600401808060200182810382526036815260200180612c376036913960400191505060405180910390fd5b6001600160a01b0383166000818152607560209081526040808320805460ff191660011790556076825291829020859055815185815291517f46980fca912ef9bcdbd36877427b6b90e860769f604e89c0e67720cece530d209281900390910190a250600192915050565b611c4e611ee1565b6001600160a01b0316336001600160a01b031614611c6b57600080fd5b6001600160a01b038116611c7e57600080fd5b606980546001600160a01b0319166001600160a01b0383811691909117918290556040519116907fb80482a293ca2e013eda8683c9bd7fc8347cfdaeea5ede58cba46df502c2a60490600090a250565b606954600160a01b900460ff1681565b6001600160a01b031660009081526072602052604090205490565b6000611d0361279f565b905090565b6000611d12611cf9565b6001600160a01b0316336001600160a01b031614611d615760405162461bcd60e51b8152600401808060200182810382526026815260200180612a906026913960400191505060405180910390fd5b611da083838080601f0160208091040260200160405190810160405280939291908181526020018383808284376000920191909152506127c492505050565b9392505050565b600054610100900460ff1680611dc05750611dc06127ca565b80611dce575060005460ff16155b611e095760405162461bcd60e51b815260040180806020018281038252602e815260200180612c98602e913960400191505060405180910390fd5b600054610100900460ff16158015611e34576000805460ff1961ff0019909116610100171660011790555b611e3c6127d0565b8015611e4e576000805461ff00191690555b50565b60006060611e5d61287a565b915091509b509b9950505050505050505050565b6069546001600160a01b03163314611e8857600080fd5b6069805460ff60a01b1916600160a01b1790556040517f6985a02210a168e66602d3235cb6db0e70f92b3ba4d376a33c0f3d9434bff62590600090a1565b6001600160a01b031660009081526076602052604090205490565b6033546001600160a01b031690565b606d805460408051602060026001851615610100026000190190941693909304601f81018490048402820184019092528181529291830182828015610d6c5780601f10610d4157610100808354040283529160200191610d6c565b60715481565b6069546001600160a01b031681565b6000611532611f6d6125a2565b8461152d8560356000611f7e6125a2565b6001600160a01b03908116825260208083019390935260409182016000908120918c16815292529020549063ffffffff6125da16565b606954600090600160a01b900460ff1615611fce57600080fd5b611fd66125a2565b6001600160a01b0381166000908152606b602052604090205460ff1615611ffc57600080fd5b6001600160a01b0384166000908152606b6020526040902054849060ff161561202457600080fd5b6001600160a01b0385166120695760405162461bcd60e51b8152600401808060200182810382526033815260200180612e5c6033913960400191505060405180910390fd5b607260006120756125a2565b6001600160a01b03166001600160a01b03168152602001908152602001600020548411156120d45760405162461bcd60e51b8152600401808060200182810382526043815260200180612ab66043913960600191505060405180910390fd5b6120e484607260006111296125a2565b607260006120f06125a2565b6001600160a01b0390811682526020808301939093526040918201600090812094909455881683526072909152902054612130908563ffffffff61263716565b6001600160a01b0386166000818152607260205260409020919091556121546125a2565b6001600160a01b0316600080516020612cc6833981519152866040518082815260200191505060405180910390a3506001949350505050565b612195611ee1565b6001600160a01b0316336001600160a01b0316146121b257600080fd5b6001600160a01b0381166121f75760405162461bcd60e51b815260040180806020018281038252603b815260200180612bbf603b913960400191505060405180910390fd5b607080546001600160a01b0319166001600160a01b0383811691909117918290556040519116907fdb66dfa9c6b8f5226fe9aac7e51897ae8ee94ac31dc70bb6c9900b2574b707e690600090a250565b6001600160a01b031660009081526075602052604090205460ff1690565b61226d611ee1565b6001600160a01b0316336001600160a01b03161461228a57600080fd5b6001600160a01b03811661229d57600080fd5b606a80546001600160a01b0319166001600160a01b0383811691909117918290556040519116907fc67398012c111ce95ecb7429b933096c977380ee6c421175a71a4a4c6c88c06e90600090a250565b6040805180820190915260058152640312e302e360dc1b602082015290565b606a546001600160a01b031681565b6001600160a01b03918216600090815260736020908152604080832093909416825291909152205490565b612358607154607260006111296125a2565b607260006123646125a2565b6001600160a01b03166001600160a01b03168152602001908152602001600020819055506123c06071546072600061239a611ee1565b6001600160a01b031681526020810191909152604001600020549063ffffffff61263716565b607260006123cc611ee1565b6001600160a01b031681526020810191909152604001600020556071547f690a348690cbfffd8ee5c69b32f9f4329d86b58c4905fa88ef6800ed93c1a556906124136125a2565b604080519283526001600160a01b0390911660208301528051918290030190a15050505050565b606f805460408051602060026001851615610100026000190190941693909304601f81018490048402820184019092528181529291830182828015610d6c5780601f10610d4157610100808354040283529160200191610d6c565b61249d611ee1565b6001600160a01b0316336001600160a01b0316146124ba57600080fd5b6001600160a01b0381166124cd57600080fd5b7f8be0079c531659141344cd1fd0a4f28419497f9722a3daafe3b4186f6b6457e06124f6611ee1565b604080516001600160a01b03928316815291841660208301528051918290030190a1611e4e81612691565b606a546001600160a01b0316331461253857600080fd5b6001600160a01b0381166000818152606b6020526040808220805460ff19166001179055517fffa4e6181777692565cf28528fc88fd1516ea86b56da075235fa575af6a4b8559190a250565b6001600160a01b03166000908152606b602052604090205460ff1690565b60006125ac61279f565b6001600160a01b0316336001600160a01b0316146125cb575033610e78565b6125d361289e565b9050610e78565b600082821115612631576040805162461bcd60e51b815260206004820152601e60248201527f536166654d6174683a207375627472616374696f6e206f766572666c6f770000604482015290519081900360640190fd5b50900390565b600082820183811015611da0576040805162461bcd60e51b815260206004820152601b60248201527f536166654d6174683a206164646974696f6e206f766572666c6f770000000000604482015290519081900360640190fd5b603380546001600160a01b0319166001600160a01b0392909216919091179055565b6001600160a01b0383166126f85760405162461bcd60e51b8152600401808060200182810382526024815260200180612de06024913960400191505060405180910390fd5b6001600160a01b03821661273d5760405162461bcd60e51b8152600401808060200182810382526022815260200180612af96022913960400191505060405180910390fd5b6001600160a01b03808416600081815260356020908152604080832094871680845294825291829020859055815185815291517f8c5be1e5ebec7d5bd14f71427d1e84f3dd0314c0f7b2291e5b200ac8c7c3b9259281900390910190a3505050565b7f06b7792c761dcc05af1761f0315ce8b01ac39c16cc934eb0b2f7a8e71414f2625490565b50600090565b303b1590565b600054610100900460ff16806127e957506127e96127ca565b806127f7575060005460ff16155b6128325760405162461bcd60e51b815260040180806020018281038252602e815260200180612c98602e913960400191505060405180910390fd5b600054610100900460ff1615801561285d576000805460ff1961ff0019909116610100171660011790555b611e3c73d216153c06e857cd7f72665e0af1d7d82172f4946128eb565b60006060612896604051806020016040528060008152506129f2565b915091509091565b600060606000368080601f0160208091040260200160405190810160405280939291908181526020018383808284376000920191909152505050503601516001600160a01b031692915050565b60006128f561279f565b90506001600160a01b03821661293c5760405162461bcd60e51b815260040180806020018281038252602c815260200180612e04602c913960400191505060405180910390fd5b806001600160a01b0316826001600160a01b0316141561298d5760405162461bcd60e51b815260040180806020018281038252602b815260200180612b60602b913960400191505060405180910390fd5b816001600160a01b0316816001600160a01b03167fb9f84b8e65164b14439ae3620df0a4d8786d896996c0282b683f9d8c08f046e860405160405180910390a3507f06b7792c761dcc05af1761f0315ce8b01ac39c16cc934eb0b2f7a8e71414f26255565b600091565b828054600181600116156101000203166002900490600052602060002090601f016020900481019282601f10612a3857805160ff1916838001178555612a65565b82800160010185558215612a65579182015b82811115612a65578251825591602001919060010190612a4a565b50612a71929150612a75565b5090565b610e7891905b80821115612a715760008155600101612a7b56fe47534e426f756e636572426173653a2063616c6c6572206973206e6f742052656c6179487562416d6f756e7420746f2062652073656e74206d757374206e6f742062652067726561746572207468616e2073656e64696e67206163636f756e742062616c616e63652e45524332303a20617070726f766520746f20746865207a65726f2061646472657373416d6f756e7420746f206265206d696e746564206d757374206e6f742062652067726561746572207468616e20616c6c6f776564206d696e7461626c6520616d6f756e742e47534e436f6e746578743a206e65772052656c6179487562206973207468652063757272656e74206f6e65526563656976696e672061646472657373206d757374206e6f74206265206275726e656420746f6b656e7320616464726573732e4e6577206d6173746572206d696e7465722061646472657373206d757374206e6f74206265206275726e656420746f6b656e20616464726573732e416d6f756e7420746f2062652073656e74206d757374206e6f742062652067726561746572207468616e20616c6c6f7761626c652062616c616e63652e546869732066756e6374696f6e2063616e206f6e6c792062652063616c6c656420627920746865206d6173746572206d696e7465722e416d6f756e7420746f206265206275726e6564206d7573742062652067726561746572207468616e20302e436f6e747261637420696e7374616e63652068617320616c7265616479206265656e20696e697469616c697a6564ddf252ad1be2c89b69c2b068fc378daa952ba7f163c4a11628f55a4df523b3ef416d6f756e7420746f206265206275726e6564206d757374206e6f742062652067726561746572207468616e206163636f756e742062616c616e63652e426c61636b6c69737465722061646472657373206d757374206265206275726e656420746f6b656e20616464726573732e416d6f756e7420746f206265206d696e746564206d7573742062652067726561746572207468616e207a65726f2e4d6173746572206d696e7465722061646472657373206d757374206265206275726e656420746f6b656e20616464726573732e4f776e65722061646472657373206d757374206265206275726e656420746f6b656e20616464726573732e45524332303a20617070726f76652066726f6d20746865207a65726f206164647265737347534e436f6e746578743a206e65772052656c617948756220697320746865207a65726f20616464726573735061757365722061646472657373206d757374206265206275726e656420746f6b656e20616464726573732e526563656976696e672061646472657373206d757374206e6f74206265206275726e656420746f6b656e20616464726573732ea265627a7a7231582049d414c0601733603596a6abf3aceaddf253f48dc504852ddc41d2fd9dc3455b64736f6c634300050c0032",
  "compiler": {
    "name": "solc",
    "version": "0.5.12+commit.7709ece9.Emscripten.clang",
    "optimizer": {
      "enabled": true
    },
    "evmVersion": "constantinople"
  }
}